{
  "_format": "hh-sol-artifact-1",
  "contractName": "Plot",
  "sourceName": "contracts/Plot.sol",
  "abi": [
    {
      "inputs": [],
      "stateMutability": "nonpayable",
      "type": "constructor"
    },
    {
      "anonymous": false,
      "inputs": [
        {
          "indexed": true,
          "internalType": "address",
          "name": "owner",
          "type": "address"
        },
        {
          "indexed": true,
          "internalType": "address",
          "name": "approved",
          "type": "address"
        },
        {
          "indexed": true,
          "internalType": "uint256",
          "name": "tokenId",
          "type": "uint256"
        }
      ],
      "name": "Approval",
      "type": "event"
    },
    {
      "anonymous": false,
      "inputs": [
        {
          "indexed": true,
          "internalType": "address",
          "name": "owner",
          "type": "address"
        },
        {
          "indexed": true,
          "internalType": "address",
          "name": "operator",
          "type": "address"
        },
        {
          "indexed": false,
          "internalType": "bool",
          "name": "approved",
          "type": "bool"
        }
      ],
      "name": "ApprovalForAll",
      "type": "event"
    },
    {
      "anonymous": false,
      "inputs": [
        {
          "indexed": true,
          "internalType": "address",
          "name": "previousOwner",
          "type": "address"
        },
        {
          "indexed": true,
          "internalType": "address",
          "name": "newOwner",
          "type": "address"
        }
      ],
      "name": "OwnershipTransferred",
      "type": "event"
    },
    {
      "anonymous": false,
      "inputs": [
        {
          "indexed": true,
          "internalType": "address",
          "name": "from",
          "type": "address"
        },
        {
          "indexed": true,
          "internalType": "address",
          "name": "to",
          "type": "address"
        },
        {
          "indexed": true,
          "internalType": "uint256",
          "name": "tokenId",
          "type": "uint256"
        }
      ],
      "name": "Transfer",
      "type": "event"
    },
    {
      "inputs": [
        {
          "internalType": "address",
          "name": "to",
          "type": "address"
        },
        {
          "internalType": "uint256",
          "name": "tokenId",
          "type": "uint256"
        }
      ],
      "name": "approve",
      "outputs": [],
      "stateMutability": "nonpayable",
      "type": "function"
    },
    {
      "inputs": [
        {
          "internalType": "address",
          "name": "owner",
          "type": "address"
        }
      ],
      "name": "balanceOf",
      "outputs": [
        {
          "internalType": "uint256",
          "name": "",
          "type": "uint256"
        }
      ],
      "stateMutability": "view",
      "type": "function"
    },
    {
      "inputs": [
        {
          "internalType": "uint8",
          "name": "quadrant",
          "type": "uint8"
        }
      ],
      "name": "buyLand",
      "outputs": [
        {
          "internalType": "uint256",
          "name": "",
          "type": "uint256"
        }
      ],
      "stateMutability": "payable",
      "type": "function"
    },
    {
      "inputs": [
        {
          "internalType": "uint8",
          "name": "quadrant",
          "type": "uint8"
        }
      ],
      "name": "flipQuadrantState",
      "outputs": [],
      "stateMutability": "nonpayable",
      "type": "function"
    },
    {
      "inputs": [],
      "name": "flipSaleState",
      "outputs": [],
      "stateMutability": "nonpayable",
      "type": "function"
    },
    {
      "inputs": [
        {
          "internalType": "uint256",
          "name": "tokenId",
          "type": "uint256"
        }
      ],
      "name": "getApproved",
      "outputs": [
        {
          "internalType": "address",
          "name": "",
          "type": "address"
        }
      ],
      "stateMutability": "view",
      "type": "function"
    },
    {
      "inputs": [
        {
          "internalType": "address",
          "name": "owner",
          "type": "address"
        }
      ],
      "name": "getLandsByOwner",
      "outputs": [
        {
          "internalType": "uint256[]",
          "name": "",
          "type": "uint256[]"
        }
      ],
      "stateMutability": "view",
      "type": "function"
    },
    {
      "inputs": [
        {
          "internalType": "address",
          "name": "owner",
          "type": "address"
        },
        {
          "internalType": "address",
          "name": "operator",
          "type": "address"
        }
      ],
      "name": "isApprovedForAll",
      "outputs": [
        {
          "internalType": "bool",
          "name": "",
          "type": "bool"
        }
      ],
      "stateMutability": "view",
      "type": "function"
    },
    {
      "inputs": [],
      "name": "name",
      "outputs": [
        {
          "internalType": "string",
          "name": "",
          "type": "string"
        }
      ],
      "stateMutability": "view",
      "type": "function"
    },
    {
      "inputs": [],
      "name": "owner",
      "outputs": [
        {
          "internalType": "address",
          "name": "",
          "type": "address"
        }
      ],
      "stateMutability": "view",
      "type": "function"
    },
    {
      "inputs": [
        {
          "internalType": "uint256",
          "name": "tokenId",
          "type": "uint256"
        }
      ],
      "name": "ownerOf",
      "outputs": [
        {
          "internalType": "address",
          "name": "",
          "type": "address"
        }
      ],
      "stateMutability": "view",
      "type": "function"
    },
    {
      "inputs": [],
      "name": "quadrantFourIsActive",
      "outputs": [
        {
          "internalType": "bool",
          "name": "",
          "type": "bool"
        }
      ],
      "stateMutability": "view",
      "type": "function"
    },
    {
      "inputs": [],
      "name": "quadrantOneIsActive",
      "outputs": [
        {
          "internalType": "bool",
          "name": "",
          "type": "bool"
        }
      ],
      "stateMutability": "view",
      "type": "function"
    },
    {
      "inputs": [],
      "name": "quadrantThreeIsActive",
      "outputs": [
        {
          "internalType": "bool",
          "name": "",
          "type": "bool"
        }
      ],
      "stateMutability": "view",
      "type": "function"
    },
    {
      "inputs": [],
      "name": "quadrantTwoIsActive",
      "outputs": [
        {
          "internalType": "bool",
          "name": "",
          "type": "bool"
        }
      ],
      "stateMutability": "view",
      "type": "function"
    },
    {
      "inputs": [],
      "name": "renounceOwnership",
      "outputs": [],
      "stateMutability": "nonpayable",
      "type": "function"
    },
    {
      "inputs": [
        {
          "internalType": "address",
          "name": "from",
          "type": "address"
        },
        {
          "internalType": "address",
          "name": "to",
          "type": "address"
        },
        {
          "internalType": "uint256",
          "name": "tokenId",
          "type": "uint256"
        }
      ],
      "name": "safeTransferFrom",
      "outputs": [],
      "stateMutability": "nonpayable",
      "type": "function"
    },
    {
      "inputs": [
        {
          "internalType": "address",
          "name": "from",
          "type": "address"
        },
        {
          "internalType": "address",
          "name": "to",
          "type": "address"
        },
        {
          "internalType": "uint256",
          "name": "tokenId",
          "type": "uint256"
        },
        {
          "internalType": "bytes",
          "name": "_data",
          "type": "bytes"
        }
      ],
      "name": "safeTransferFrom",
      "outputs": [],
      "stateMutability": "nonpayable",
      "type": "function"
    },
    {
      "inputs": [],
      "name": "saleIsActive",
      "outputs": [
        {
          "internalType": "bool",
          "name": "",
          "type": "bool"
        }
      ],
      "stateMutability": "view",
      "type": "function"
    },
    {
      "inputs": [
        {
          "internalType": "address",
          "name": "operator",
          "type": "address"
        },
        {
          "internalType": "bool",
          "name": "approved",
          "type": "bool"
        }
      ],
      "name": "setApprovalForAll",
      "outputs": [],
      "stateMutability": "nonpayable",
      "type": "function"
    },
    {
      "inputs": [
        {
          "internalType": "uint256",
          "name": "price",
          "type": "uint256"
        }
      ],
      "name": "setLandPrice",
      "outputs": [],
      "stateMutability": "nonpayable",
      "type": "function"
    },
    {
      "inputs": [
        {
          "internalType": "bytes4",
          "name": "interfaceId",
          "type": "bytes4"
        }
      ],
      "name": "supportsInterface",
      "outputs": [
        {
          "internalType": "bool",
          "name": "",
          "type": "bool"
        }
      ],
      "stateMutability": "view",
      "type": "function"
    },
    {
      "inputs": [],
      "name": "symbol",
      "outputs": [
        {
          "internalType": "string",
          "name": "",
          "type": "string"
        }
      ],
      "stateMutability": "view",
      "type": "function"
    },
    {
      "inputs": [
        {
          "internalType": "uint256",
          "name": "tokenId",
          "type": "uint256"
        }
      ],
      "name": "tokenURI",
      "outputs": [
        {
          "internalType": "string",
          "name": "",
          "type": "string"
        }
      ],
      "stateMutability": "view",
      "type": "function"
    },
    {
      "inputs": [],
      "name": "totalMinted",
      "outputs": [
        {
          "internalType": "uint256",
          "name": "",
          "type": "uint256"
        }
      ],
      "stateMutability": "view",
      "type": "function"
    },
    {
      "inputs": [],
      "name": "totalSupply",
      "outputs": [
        {
          "internalType": "uint16",
          "name": "",
          "type": "uint16"
        }
      ],
      "stateMutability": "pure",
      "type": "function"
    },
    {
      "inputs": [
        {
          "internalType": "address",
          "name": "from",
          "type": "address"
        },
        {
          "internalType": "address",
          "name": "to",
          "type": "address"
        },
        {
          "internalType": "uint256",
          "name": "tokenId",
          "type": "uint256"
        }
      ],
      "name": "transferFrom",
      "outputs": [],
      "stateMutability": "nonpayable",
      "type": "function"
    },
    {
      "inputs": [
        {
          "internalType": "address",
          "name": "newOwner",
          "type": "address"
        }
      ],
      "name": "transferOwnership",
      "outputs": [],
      "stateMutability": "nonpayable",
      "type": "function"
    }
  ],
  "bytecode": "0x608060405260006009556000600a60006101000a81548160ff0219169083151502179055506001600a60016101000a81548161ffff021916908361ffff160217905550612f60600a60036101000a81548161ffff021916908361ffff160217905550615e7c600a60056101000a81548161ffff021916908361ffff160217905550618d26600a60076101000a81548161ffff021916908361ffff1602179055506001600a60096101000a81548160ff0219169083151502179055506000600a806101000a81548160ff0219169083151502179055506000600a600b6101000a81548160ff0219169083151502179055506000600a600c6101000a81548160ff0219169083151502179055503480156200011757600080fd5b506040518060400160405280600481526020017f506c6f74000000000000000000000000000000000000000000000000000000008152506040518060400160405280600181526020017f500000000000000000000000000000000000000000000000000000000000000081525081600090805190602001906200019c929190620002ac565b508060019080519060200190620001b5929190620002ac565b505050620001d8620001cc620001de60201b60201c565b620001e660201b60201c565b620003c1565b600033905090565b6000600760009054906101000a900473ffffffffffffffffffffffffffffffffffffffff16905081600760006101000a81548173ffffffffffffffffffffffffffffffffffffffff021916908373ffffffffffffffffffffffffffffffffffffffff1602179055508173ffffffffffffffffffffffffffffffffffffffff168173ffffffffffffffffffffffffffffffffffffffff167f8be0079c531659141344cd1fd0a4f28419497f9722a3daafe3b4186f6b6457e060405160405180910390a35050565b828054620002ba906200035c565b90600052602060002090601f016020900481019282620002de57600085556200032a565b82601f10620002f957805160ff19168380011785556200032a565b828001600101855582156200032a579182015b82811115620003295782518255916020019190600101906200030c565b5b5090506200033991906200033d565b5090565b5b80821115620003585760008160009055506001016200033e565b5090565b600060028204905060018216806200037557607f821691505b602082108114156200038c576200038b62000392565b5b50919050565b7f4e487b7100000000000000000000000000000000000000000000000000000000600052602260045260246000fd5b6144d780620003d16000396000f3fe6080604052600436106101b75760003560e01c80636352211e116100ec578063b88d4fde1161008a578063cd643c9711610064578063cd643c97146105ff578063e985e9c51461062a578063eb8d244414610667578063f2fde38b14610692576101b7565b8063b88d4fde14610570578063bd91cc7514610599578063c87b56dd146105c2576101b7565b80638da5cb5b116100c65780638da5cb5b146104c657806395d89b41146104f1578063a22cb4651461051c578063a2309ff814610545576101b7565b80636352211e1461043557806370a0823114610472578063715018a6146104af576101b7565b80632d2f965211610159578063455b9d2311610133578063455b9d23146103725780634763c8ce146103af5780634e29c2e2146103da5780635a2cc5fb1461040a576101b7565b80632d2f96521461030757806334918dfd1461033257806342842e0e14610349576101b7565b8063081812fc11610195578063081812fc1461024d578063095ea7b31461028a57806318160ddd146102b357806323b872dd146102de576101b7565b806301ffc9a7146101bc578063022565f1146101f957806306fdde0314610222575b600080fd5b3480156101c857600080fd5b506101e360048036038101906101de9190612bf7565b6106bb565b6040516101f091906132e9565b60405180910390f35b34801561020557600080fd5b50610220600480360381019061021b9190612c49565b61079d565b005b34801561022e57600080fd5b50610237610823565b6040516102449190613304565b60405180910390f35b34801561025957600080fd5b50610274600480360381019061026f9190612c49565b6108b5565b6040516102819190613260565b60405180910390f35b34801561029657600080fd5b506102b160048036038101906102ac9190612bbb565b61093a565b005b3480156102bf57600080fd5b506102c8610a52565b6040516102d59190613706565b60405180910390f35b3480156102ea57600080fd5b5061030560048036038101906103009190612ab5565b610a5c565b005b34801561031357600080fd5b5061031c610abc565b60405161032991906132e9565b60405180910390f35b34801561033e57600080fd5b50610347610acf565b005b34801561035557600080fd5b50610370600480360381019061036b9190612ab5565b610b77565b005b34801561037e57600080fd5b5061039960048036038101906103949190612a50565b610b97565b6040516103a691906132c7565b60405180910390f35b3480156103bb57600080fd5b506103c4610cdb565b6040516103d191906132e9565b60405180910390f35b6103f460048036038101906103ef9190612c72565b610cee565b6040516104019190613721565b60405180910390f35b34801561041657600080fd5b5061041f6112a0565b60405161042c91906132e9565b60405180910390f35b34801561044157600080fd5b5061045c60048036038101906104579190612c49565b6112b1565b6040516104699190613260565b60405180910390f35b34801561047e57600080fd5b5061049960048036038101906104949190612a50565b611363565b6040516104a69190613721565b60405180910390f35b3480156104bb57600080fd5b506104c461141b565b005b3480156104d257600080fd5b506104db6114a3565b6040516104e89190613260565b60405180910390f35b3480156104fd57600080fd5b506105066114cd565b6040516105139190613304565b60405180910390f35b34801561052857600080fd5b50610543600480360381019061053e9190612b7f565b61155f565b005b34801561055157600080fd5b5061055a611575565b6040516105679190613721565b60405180910390f35b34801561057c57600080fd5b5061059760048036038101906105929190612b04565b611586565b005b3480156105a557600080fd5b506105c060048036038101906105bb9190612c72565b6115e8565b005b3480156105ce57600080fd5b506105e960048036038101906105e49190612c49565b6117a4565b6040516105f69190613304565b60405180910390f35b34801561060b57600080fd5b506106146118b3565b60405161062191906132e9565b60405180910390f35b34801561063657600080fd5b50610651600480360381019061064c9190612a79565b6118c6565b60405161065e91906132e9565b60405180910390f35b34801561067357600080fd5b5061067c61195a565b60405161068991906132e9565b60405180910390f35b34801561069e57600080fd5b506106b960048036038101906106b49190612a50565b61196d565b005b60007f80ac58cd000000000000000000000000000000000000000000000000000000007bffffffffffffffffffffffffffffffffffffffffffffffffffffffff1916827bffffffffffffffffffffffffffffffffffffffffffffffffffffffff1916148061078657507f5b5e139f000000000000000000000000000000000000000000000000000000007bffffffffffffffffffffffffffffffffffffffffffffffffffffffff1916827bffffffffffffffffffffffffffffffffffffffffffffffffffffffff1916145b80610796575061079582611a65565b5b9050919050565b6107a5611acf565b73ffffffffffffffffffffffffffffffffffffffff166107c36114a3565b73ffffffffffffffffffffffffffffffffffffffff1614610819576040517f08c379a0000000000000000000000000000000000000000000000000000000008152600401610810906135c6565b60405180910390fd5b8060098190555050565b606060008054610832906139d2565b80601f016020809104026020016040519081016040528092919081815260200182805461085e906139d2565b80156108ab5780601f10610880576101008083540402835291602001916108ab565b820191906000526020600020905b81548152906001019060200180831161088e57829003601f168201915b5050505050905090565b60006108c082611ad7565b6108ff576040517f08c379a00000000000000000000000000000000000000000000000000000000081526004016108f6906135a6565b60405180910390fd5b6004600083815260200190815260200160002060009054906101000a900473ffffffffffffffffffffffffffffffffffffffff169050919050565b6000610945826112b1565b90508073ffffffffffffffffffffffffffffffffffffffff168373ffffffffffffffffffffffffffffffffffffffff1614156109b6576040517f08c379a00000000000000000000000000000000000000000000000000000000081526004016109ad90613646565b60405180910390fd5b8073ffffffffffffffffffffffffffffffffffffffff166109d5611acf565b73ffffffffffffffffffffffffffffffffffffffff161480610a045750610a03816109fe611acf565b6118c6565b5b610a43576040517f08c379a0000000000000000000000000000000000000000000000000000000008152600401610a3a906134a6565b60405180910390fd5b610a4d8383611b43565b505050565b600061bb8d905090565b610a6d610a67611acf565b82611bfc565b610aac576040517f08c379a0000000000000000000000000000000000000000000000000000000008152600401610aa390613666565b60405180910390fd5b610ab7838383611cda565b505050565b600a600b9054906101000a900460ff1681565b610ad7611acf565b73ffffffffffffffffffffffffffffffffffffffff16610af56114a3565b73ffffffffffffffffffffffffffffffffffffffff1614610b4b576040517f08c379a0000000000000000000000000000000000000000000000000000000008152600401610b42906135c6565b60405180910390fd5b600a60009054906101000a900460ff1615600a60006101000a81548160ff021916908315150217905550565b610b9283838360405180602001604052806000815250611586565b505050565b60606000610ba483611363565b67ffffffffffffffff811115610be3577f4e487b7100000000000000000000000000000000000000000000000000000000600052604160045260246000fd5b604051908082528060200260200182016040528015610c115781602001602082028036833780820191505090505b509050600080600190505b610c266008611f36565b8111610cd0578473ffffffffffffffffffffffffffffffffffffffff16610c4c826112b1565b73ffffffffffffffffffffffffffffffffffffffff161415610cbd5780838381518110610ca2577f4e487b7100000000000000000000000000000000000000000000000000000000600052603260045260246000fd5b6020026020010181815250508180610cb990613a35565b9250505b8080610cc890613a35565b915050610c1c565b508192505050919050565b600a600c9054906101000a900460ff1681565b6000600a60009054906101000a900460ff16610d3f576040517f08c379a0000000000000000000000000000000000000000000000000000000008152600401610d3690613446565b60405180910390fd5b600954341015610d84576040517f08c379a0000000000000000000000000000000000000000000000000000000008152600401610d7b906135e6565b60405180910390fd5b60008260ff16118015610d9a575060058260ff16105b610dd9576040517f08c379a0000000000000000000000000000000000000000000000000000000008152600401610dd090613526565b60405180910390fd5b61bb8d61ffff166001610dec6008611f36565b610df69190613846565b1115610e37576040517f08c379a0000000000000000000000000000000000000000000000000000000008152600401610e2e90613426565b60405180910390fd5b600060018360ff161415610f4357600a60099054906101000a900460ff16610e94576040517f08c379a0000000000000000000000000000000000000000000000000000000008152600401610e8b90613326565b60405180910390fd5b612f5f61ffff16600a60019054906101000a900461ffff1661ffff161115610ef1576040517f08c379a0000000000000000000000000000000000000000000000000000000008152600401610ee890613346565b60405180910390fd5b600a60019054906101000a900461ffff1690506001600a60018282829054906101000a900461ffff16610f24919061380e565b92506101000a81548161ffff021916908361ffff16021790555061125e565b60028360ff16141561104b57600a8054906101000a900460ff16610f9c576040517f08c379a0000000000000000000000000000000000000000000000000000000008152600401610f93906136a6565b60405180910390fd5b615e7b61ffff16600a60039054906101000a900461ffff1661ffff161115610ff9576040517f08c379a0000000000000000000000000000000000000000000000000000000008152600401610ff090613686565b60405180910390fd5b600a60039054906101000a900461ffff1690506001600a60038282829054906101000a900461ffff1661102c919061380e565b92506101000a81548161ffff021916908361ffff16021790555061125d565b60038360ff16141561115557600a600b9054906101000a900460ff166110a6576040517f08c379a000000000000000000000000000000000000000000000000000000000815260040161109d90613486565b60405180910390fd5b618d2561ffff16600a60059054906101000a900461ffff1661ffff161115611103576040517f08c379a00000000000000000000000000000000000000000000000000000000081526004016110fa906136e6565b60405180910390fd5b600a60059054906101000a900461ffff1690506001600a60058282829054906101000a900461ffff16611136919061380e565b92506101000a81548161ffff021916908361ffff16021790555061125c565b60048360ff16141561125b57600a600c9054906101000a900460ff166111b0576040517f08c379a00000000000000000000000000000000000000000000000000000000081526004016111a790613546565b60405180910390fd5b61bb8d61ffff16600a60079054906101000a900461ffff1661ffff16111561120d576040517f08c379a0000000000000000000000000000000000000000000000000000000008152600401611204906133c6565b60405180910390fd5b600a60079054906101000a900461ffff1690506001600a60078282829054906101000a900461ffff16611240919061380e565b92506101000a81548161ffff021916908361ffff1602179055505b5b5b5b6112686008611f44565b60006112746008611f36565b90506112803382611f5a565b611296816112918461ffff166117a4565b611f78565b8092505050919050565b600a8054906101000a900460ff1681565b6000806002600084815260200190815260200160002060009054906101000a900473ffffffffffffffffffffffffffffffffffffffff169050600073ffffffffffffffffffffffffffffffffffffffff168173ffffffffffffffffffffffffffffffffffffffff16141561135a576040517f08c379a0000000000000000000000000000000000000000000000000000000008152600401611351906134e6565b60405180910390fd5b80915050919050565b60008073ffffffffffffffffffffffffffffffffffffffff168273ffffffffffffffffffffffffffffffffffffffff1614156113d4576040517f08c379a00000000000000000000000000000000000000000000000000000000081526004016113cb906134c6565b60405180910390fd5b600360008373ffffffffffffffffffffffffffffffffffffffff1673ffffffffffffffffffffffffffffffffffffffff168152602001908152602001600020549050919050565b611423611acf565b73ffffffffffffffffffffffffffffffffffffffff166114416114a3565b73ffffffffffffffffffffffffffffffffffffffff1614611497576040517f08c379a000000000000000000000000000000000000000000000000000000000815260040161148e906135c6565b60405180910390fd5b6114a16000611fec565b565b6000600760009054906101000a900473ffffffffffffffffffffffffffffffffffffffff16905090565b6060600180546114dc906139d2565b80601f0160208091040260200160405190810160405280929190818152602001828054611508906139d2565b80156115555780601f1061152a57610100808354040283529160200191611555565b820191906000526020600020905b81548152906001019060200180831161153857829003601f168201915b5050505050905090565b61157161156a611acf565b83836120b2565b5050565b60006115816008611f36565b905090565b611597611591611acf565b83611bfc565b6115d6576040517f08c379a00000000000000000000000000000000000000000000000000000000081526004016115cd90613666565b60405180910390fd5b6115e28484848461221f565b50505050565b6115f0611acf565b73ffffffffffffffffffffffffffffffffffffffff1661160e6114a3565b73ffffffffffffffffffffffffffffffffffffffff1614611664576040517f08c379a000000000000000000000000000000000000000000000000000000000815260040161165b906135c6565b60405180910390fd5b60008160ff1611801561167a575060058160ff16105b6116b9576040517f08c379a00000000000000000000000000000000000000000000000000000000081526004016116b0906136c6565b60405180910390fd5b60018160ff1614156116f457600a60099054906101000a900460ff1615600a60096101000a81548160ff0219169083151502179055506117a1565b60028160ff16141561172c57600a8054906101000a900460ff1615600a806101000a81548160ff0219169083151502179055506117a0565b60038160ff16141561176757600a600b9054906101000a900460ff1615600a600b6101000a81548160ff02191690831515021790555061179f565b60048160ff16141561179e57600a600c9054906101000a900460ff1615600a600c6101000a81548160ff0219169083151502179055505b5b5b5b50565b60606117af82611ad7565b6117ee576040517f08c379a00000000000000000000000000000000000000000000000000000000081526004016117e590613586565b60405180910390fd5b600060066000848152602001908152602001600020805461180e906139d2565b80601f016020809104026020016040519081016040528092919081815260200182805461183a906139d2565b80156118875780601f1061185c57610100808354040283529160200191611887565b820191906000526020600020905b81548152906001019060200180831161186a57829003601f168201915b505050505090506000815111156118a157809150506118ae565b6118aa8361227b565b9150505b919050565b600a60099054906101000a900460ff1681565b6000600560008473ffffffffffffffffffffffffffffffffffffffff1673ffffffffffffffffffffffffffffffffffffffff16815260200190815260200160002060008373ffffffffffffffffffffffffffffffffffffffff1673ffffffffffffffffffffffffffffffffffffffff16815260200190815260200160002060009054906101000a900460ff16905092915050565b600a60009054906101000a900460ff1681565b611975611acf565b73ffffffffffffffffffffffffffffffffffffffff166119936114a3565b73ffffffffffffffffffffffffffffffffffffffff16146119e9576040517f08c379a00000000000000000000000000000000000000000000000000000000081526004016119e0906135c6565b60405180910390fd5b600073ffffffffffffffffffffffffffffffffffffffff168173ffffffffffffffffffffffffffffffffffffffff161415611a59576040517f08c379a0000000000000000000000000000000000000000000000000000000008152600401611a5090613386565b60405180910390fd5b611a6281611fec565b50565b60007f01ffc9a7000000000000000000000000000000000000000000000000000000007bffffffffffffffffffffffffffffffffffffffffffffffffffffffff1916827bffffffffffffffffffffffffffffffffffffffffffffffffffffffff1916149050919050565b600033905090565b60008073ffffffffffffffffffffffffffffffffffffffff166002600084815260200190815260200160002060009054906101000a900473ffffffffffffffffffffffffffffffffffffffff1673ffffffffffffffffffffffffffffffffffffffff1614159050919050565b816004600083815260200190815260200160002060006101000a81548173ffffffffffffffffffffffffffffffffffffffff021916908373ffffffffffffffffffffffffffffffffffffffff160217905550808273ffffffffffffffffffffffffffffffffffffffff16611bb6836112b1565b73ffffffffffffffffffffffffffffffffffffffff167f8c5be1e5ebec7d5bd14f71427d1e84f3dd0314c0f7b2291e5b200ac8c7c3b92560405160405180910390a45050565b6000611c0782611ad7565b611c46576040517f08c379a0000000000000000000000000000000000000000000000000000000008152600401611c3d90613466565b60405180910390fd5b6000611c51836112b1565b90508073ffffffffffffffffffffffffffffffffffffffff168473ffffffffffffffffffffffffffffffffffffffff161480611cc057508373ffffffffffffffffffffffffffffffffffffffff16611ca8846108b5565b73ffffffffffffffffffffffffffffffffffffffff16145b80611cd15750611cd081856118c6565b5b91505092915050565b8273ffffffffffffffffffffffffffffffffffffffff16611cfa826112b1565b73ffffffffffffffffffffffffffffffffffffffff1614611d50576040517f08c379a0000000000000000000000000000000000000000000000000000000008152600401611d4790613606565b60405180910390fd5b600073ffffffffffffffffffffffffffffffffffffffff168273ffffffffffffffffffffffffffffffffffffffff161415611dc0576040517f08c379a0000000000000000000000000000000000000000000000000000000008152600401611db7906133e6565b60405180910390fd5b611dcb838383612322565b611dd6600082611b43565b6001600360008573ffffffffffffffffffffffffffffffffffffffff1673ffffffffffffffffffffffffffffffffffffffff1681526020019081526020016000206000828254611e2691906138cd565b925050819055506001600360008473ffffffffffffffffffffffffffffffffffffffff1673ffffffffffffffffffffffffffffffffffffffff1681526020019081526020016000206000828254611e7d9190613846565b92505081905550816002600083815260200190815260200160002060006101000a81548173ffffffffffffffffffffffffffffffffffffffff021916908373ffffffffffffffffffffffffffffffffffffffff160217905550808273ffffffffffffffffffffffffffffffffffffffff168473ffffffffffffffffffffffffffffffffffffffff167fddf252ad1be2c89b69c2b068fc378daa952ba7f163c4a11628f55a4df523b3ef60405160405180910390a4505050565b600081600001549050919050565b6001816000016000828254019250508190555050565b611f74828260405180602001604052806000815250612327565b5050565b611f8182611ad7565b611fc0576040517f08c379a0000000000000000000000000000000000000000000000000000000008152600401611fb790613506565b60405180910390fd5b80600660008481526020019081526020016000209080519060200190611fe79291906128c7565b505050565b6000600760009054906101000a900473ffffffffffffffffffffffffffffffffffffffff16905081600760006101000a81548173ffffffffffffffffffffffffffffffffffffffff021916908373ffffffffffffffffffffffffffffffffffffffff1602179055508173ffffffffffffffffffffffffffffffffffffffff168173ffffffffffffffffffffffffffffffffffffffff167f8be0079c531659141344cd1fd0a4f28419497f9722a3daafe3b4186f6b6457e060405160405180910390a35050565b8173ffffffffffffffffffffffffffffffffffffffff168373ffffffffffffffffffffffffffffffffffffffff161415612121576040517f08c379a000000000000000000000000000000000000000000000000000000000815260040161211890613406565b60405180910390fd5b80600560008573ffffffffffffffffffffffffffffffffffffffff1673ffffffffffffffffffffffffffffffffffffffff16815260200190815260200160002060008473ffffffffffffffffffffffffffffffffffffffff1673ffffffffffffffffffffffffffffffffffffffff16815260200190815260200160002060006101000a81548160ff0219169083151502179055508173ffffffffffffffffffffffffffffffffffffffff168373ffffffffffffffffffffffffffffffffffffffff167f17307eab39ab6107e8899845ad3d59bd9653f200f220920489ca2b5937696c318360405161221291906132e9565b60405180910390a3505050565b61222a848484611cda565b61223684848484612382565b612275576040517f08c379a000000000000000000000000000000000000000000000000000000000815260040161226c90613366565b60405180910390fd5b50505050565b606061228682611ad7565b6122c5576040517f08c379a00000000000000000000000000000000000000000000000000000000081526004016122bc90613626565b60405180910390fd5b60006122cf612519565b905060008151116122ef576040518060200160405280600081525061231a565b806122f984612539565b60405160200161230a92919061323c565b6040516020818303038152906040525b915050919050565b505050565b61233183836126e6565b61233e6000848484612382565b61237d576040517f08c379a000000000000000000000000000000000000000000000000000000000815260040161237490613366565b60405180910390fd5b505050565b60006123a38473ffffffffffffffffffffffffffffffffffffffff166128b4565b1561250c578373ffffffffffffffffffffffffffffffffffffffff1663150b7a026123cc611acf565b8786866040518563ffffffff1660e01b81526004016123ee949392919061327b565b602060405180830381600087803b15801561240857600080fd5b505af192505050801561243957506040513d601f19601f820116820180604052508101906124369190612c20565b60015b6124bc573d8060008114612469576040519150601f19603f3d011682016040523d82523d6000602084013e61246e565b606091505b506000815114156124b4576040517f08c379a00000000000000000000000000000000000000000000000000000000081526004016124ab90613366565b60405180910390fd5b805181602001fd5b63150b7a0260e01b7bffffffffffffffffffffffffffffffffffffffffffffffffffffffff1916817bffffffffffffffffffffffffffffffffffffffffffffffffffffffff191614915050612511565b600190505b949350505050565b606060405180608001604052806051815260200161445160519139905090565b60606000821415612581576040518060400160405280600181526020017f300000000000000000000000000000000000000000000000000000000000000081525090506126e1565b600082905060005b600082146125b357808061259c90613a35565b915050600a826125ac919061389c565b9150612589565b60008167ffffffffffffffff8111156125f5577f4e487b7100000000000000000000000000000000000000000000000000000000600052604160045260246000fd5b6040519080825280601f01601f1916602001820160405280156126275781602001600182028036833780820191505090505b5090505b600085146126da5760018261264091906138cd565b9150600a8561264f9190613a7e565b603061265b9190613846565b60f81b818381518110612697577f4e487b7100000000000000000000000000000000000000000000000000000000600052603260045260246000fd5b60200101907effffffffffffffffffffffffffffffffffffffffffffffffffffffffffffff1916908160001a905350600a856126d3919061389c565b945061262b565b8093505050505b919050565b600073ffffffffffffffffffffffffffffffffffffffff168273ffffffffffffffffffffffffffffffffffffffff161415612756576040517f08c379a000000000000000000000000000000000000000000000000000000000815260040161274d90613566565b60405180910390fd5b61275f81611ad7565b1561279f576040517f08c379a0000000000000000000000000000000000000000000000000000000008152600401612796906133a6565b60405180910390fd5b6127ab60008383612322565b6001600360008473ffffffffffffffffffffffffffffffffffffffff1673ffffffffffffffffffffffffffffffffffffffff16815260200190815260200160002060008282546127fb9190613846565b92505081905550816002600083815260200190815260200160002060006101000a81548173ffffffffffffffffffffffffffffffffffffffff021916908373ffffffffffffffffffffffffffffffffffffffff160217905550808273ffffffffffffffffffffffffffffffffffffffff16600073ffffffffffffffffffffffffffffffffffffffff167fddf252ad1be2c89b69c2b068fc378daa952ba7f163c4a11628f55a4df523b3ef60405160405180910390a45050565b600080823b905060008111915050919050565b8280546128d3906139d2565b90600052602060002090601f0160209004810192826128f5576000855561293c565b82601f1061290e57805160ff191683800117855561293c565b8280016001018555821561293c579182015b8281111561293b578251825591602001919060010190612920565b5b509050612949919061294d565b5090565b5b8082111561296657600081600090555060010161294e565b5090565b600061297d61297884613761565b61373c565b90508281526020810184848401111561299557600080fd5b6129a0848285613990565b509392505050565b6000813590506129b7816143dd565b92915050565b6000813590506129cc816143f4565b92915050565b6000813590506129e18161440b565b92915050565b6000815190506129f68161440b565b92915050565b600082601f830112612a0d57600080fd5b8135612a1d84826020860161296a565b91505092915050565b600081359050612a3581614422565b92915050565b600081359050612a4a81614439565b92915050565b600060208284031215612a6257600080fd5b6000612a70848285016129a8565b91505092915050565b60008060408385031215612a8c57600080fd5b6000612a9a858286016129a8565b9250506020612aab858286016129a8565b9150509250929050565b600080600060608486031215612aca57600080fd5b6000612ad8868287016129a8565b9350506020612ae9868287016129a8565b9250506040612afa86828701612a26565b9150509250925092565b60008060008060808587031215612b1a57600080fd5b6000612b28878288016129a8565b9450506020612b39878288016129a8565b9350506040612b4a87828801612a26565b925050606085013567ffffffffffffffff811115612b6757600080fd5b612b73878288016129fc565b91505092959194509250565b60008060408385031215612b9257600080fd5b6000612ba0858286016129a8565b9250506020612bb1858286016129bd565b9150509250929050565b60008060408385031215612bce57600080fd5b6000612bdc858286016129a8565b9250506020612bed85828601612a26565b9150509250929050565b600060208284031215612c0957600080fd5b6000612c17848285016129d2565b91505092915050565b600060208284031215612c3257600080fd5b6000612c40848285016129e7565b91505092915050565b600060208284031215612c5b57600080fd5b6000612c6984828501612a26565b91505092915050565b600060208284031215612c8457600080fd5b6000612c9284828501612a3b565b91505092915050565b6000612ca7838361321e565b60208301905092915050565b612cbc81613901565b82525050565b6000612ccd826137a2565b612cd781856137d0565b9350612ce283613792565b8060005b83811015612d13578151612cfa8882612c9b565b9750612d05836137c3565b925050600181019050612ce6565b5085935050505092915050565b612d2981613913565b82525050565b6000612d3a826137ad565b612d4481856137e1565b9350612d5481856020860161399f565b612d5d81613b6b565b840191505092915050565b6000612d73826137b8565b612d7d81856137f2565b9350612d8d81856020860161399f565b612d9681613b6b565b840191505092915050565b6000612dac826137b8565b612db68185613803565b9350612dc681856020860161399f565b80840191505092915050565b6000612ddf6023836137f2565b9150612dea82613b7c565b604082019050919050565b6000612e026029836137f2565b9150612e0d82613bcb565b604082019050919050565b6000612e256032836137f2565b9150612e3082613c1a565b604082019050919050565b6000612e486026836137f2565b9150612e5382613c69565b604082019050919050565b6000612e6b601c836137f2565b9150612e7682613cb8565b602082019050919050565b6000612e8e602a836137f2565b9150612e9982613ce1565b604082019050919050565b6000612eb16024836137f2565b9150612ebc82613d30565b604082019050919050565b6000612ed46019836137f2565b9150612edf82613d7f565b602082019050919050565b6000612ef76031836137f2565b9150612f0282613da8565b604082019050919050565b6000612f1a601b836137f2565b9150612f2582613df7565b602082019050919050565b6000612f3d602c836137f2565b9150612f4882613e20565b604082019050919050565b6000612f606025836137f2565b9150612f6b82613e6f565b604082019050919050565b6000612f836038836137f2565b9150612f8e82613ebe565b604082019050919050565b6000612fa6602a836137f2565b9150612fb182613f0d565b604082019050919050565b6000612fc96029836137f2565b9150612fd482613f5c565b604082019050919050565b6000612fec602e836137f2565b9150612ff782613fab565b604082019050919050565b600061300f6019836137f2565b915061301a82613ffa565b602082019050919050565b60006130326024836137f2565b915061303d82614023565b604082019050919050565b60006130556020836137f2565b915061306082614072565b602082019050919050565b60006130786031836137f2565b91506130838261409b565b604082019050919050565b600061309b602c836137f2565b91506130a6826140ea565b604082019050919050565b60006130be6020836137f2565b91506130c982614139565b602082019050919050565b60006130e16014836137f2565b91506130ec82614162565b602082019050919050565b60006131046029836137f2565b915061310f8261418b565b604082019050919050565b6000613127602f836137f2565b9150613132826141da565b604082019050919050565b600061314a6021836137f2565b915061315582614229565b604082019050919050565b600061316d6031836137f2565b915061317882614278565b604082019050919050565b60006131906029836137f2565b915061319b826142c7565b604082019050919050565b60006131b36023836137f2565b91506131be82614316565b604082019050919050565b60006131d66018836137f2565b91506131e182614365565b602082019050919050565b60006131f9602b836137f2565b91506132048261438e565b604082019050919050565b6132188161394b565b82525050565b61322781613979565b82525050565b61323681613979565b82525050565b60006132488285612da1565b91506132548284612da1565b91508190509392505050565b60006020820190506132756000830184612cb3565b92915050565b60006080820190506132906000830187612cb3565b61329d6020830186612cb3565b6132aa604083018561322d565b81810360608301526132bc8184612d2f565b905095945050505050565b600060208201905081810360008301526132e18184612cc2565b905092915050565b60006020820190506132fe6000830184612d20565b92915050565b6000602082019050818103600083015261331e8184612d68565b905092915050565b6000602082019050818103600083015261333f81612dd2565b9050919050565b6000602082019050818103600083015261335f81612df5565b9050919050565b6000602082019050818103600083015261337f81612e18565b9050919050565b6000602082019050818103600083015261339f81612e3b565b9050919050565b600060208201905081810360008301526133bf81612e5e565b9050919050565b600060208201905081810360008301526133df81612e81565b9050919050565b600060208201905081810360008301526133ff81612ea4565b9050919050565b6000602082019050818103600083015261341f81612ec7565b9050919050565b6000602082019050818103600083015261343f81612eea565b9050919050565b6000602082019050818103600083015261345f81612f0d565b9050919050565b6000602082019050818103600083015261347f81612f30565b9050919050565b6000602082019050818103600083015261349f81612f53565b9050919050565b600060208201905081810360008301526134bf81612f76565b9050919050565b600060208201905081810360008301526134df81612f99565b9050919050565b600060208201905081810360008301526134ff81612fbc565b9050919050565b6000602082019050818103600083015261351f81612fdf565b9050919050565b6000602082019050818103600083015261353f81613002565b9050919050565b6000602082019050818103600083015261355f81613025565b9050919050565b6000602082019050818103600083015261357f81613048565b9050919050565b6000602082019050818103600083015261359f8161306b565b9050919050565b600060208201905081810360008301526135bf8161308e565b9050919050565b600060208201905081810360008301526135df816130b1565b9050919050565b600060208201905081810360008301526135ff816130d4565b9050919050565b6000602082019050818103600083015261361f816130f7565b9050919050565b6000602082019050818103600083015261363f8161311a565b9050919050565b6000602082019050818103600083015261365f8161313d565b9050919050565b6000602082019050818103600083015261367f81613160565b9050919050565b6000602082019050818103600083015261369f81613183565b9050919050565b600060208201905081810360008301526136bf816131a6565b9050919050565b600060208201905081810360008301526136df816131c9565b9050919050565b600060208201905081810360008301526136ff816131ec565b9050919050565b600060208201905061371b600083018461320f565b92915050565b6000602082019050613736600083018461322d565b92915050565b6000613746613757565b90506137528282613a04565b919050565b6000604051905090565b600067ffffffffffffffff82111561377c5761377b613b3c565b5b61378582613b6b565b9050602081019050919050565b6000819050602082019050919050565b600081519050919050565b600081519050919050565b600081519050919050565b6000602082019050919050565b600082825260208201905092915050565b600082825260208201905092915050565b600082825260208201905092915050565b600081905092915050565b60006138198261394b565b91506138248361394b565b92508261ffff0382111561383b5761383a613aaf565b5b828201905092915050565b600061385182613979565b915061385c83613979565b9250827fffffffffffffffffffffffffffffffffffffffffffffffffffffffffffffffff0382111561389157613890613aaf565b5b828201905092915050565b60006138a782613979565b91506138b283613979565b9250826138c2576138c1613ade565b5b828204905092915050565b60006138d882613979565b91506138e383613979565b9250828210156138f6576138f5613aaf565b5b828203905092915050565b600061390c82613959565b9050919050565b60008115159050919050565b60007fffffffff0000000000000000000000000000000000000000000000000000000082169050919050565b600061ffff82169050919050565b600073ffffffffffffffffffffffffffffffffffffffff82169050919050565b6000819050919050565b600060ff82169050919050565b82818337600083830152505050565b60005b838110156139bd5780820151818401526020810190506139a2565b838111156139cc576000848401525b50505050565b600060028204905060018216806139ea57607f821691505b602082108114156139fe576139fd613b0d565b5b50919050565b613a0d82613b6b565b810181811067ffffffffffffffff82111715613a2c57613a2b613b3c565b5b80604052505050565b6000613a4082613979565b91507fffffffffffffffffffffffffffffffffffffffffffffffffffffffffffffffff821415613a7357613a72613aaf565b5b600182019050919050565b6000613a8982613979565b9150613a9483613979565b925082613aa457613aa3613ade565b5b828206905092915050565b7f4e487b7100000000000000000000000000000000000000000000000000000000600052601160045260246000fd5b7f4e487b7100000000000000000000000000000000000000000000000000000000600052601260045260246000fd5b7f4e487b7100000000000000000000000000000000000000000000000000000000600052602260045260246000fd5b7f4e487b7100000000000000000000000000000000000000000000000000000000600052604160045260246000fd5b6000601f19601f8301169050919050565b7f5175616472616e74206f6e65206d7573742062652061637469766520746f206d60008201527f696e740000000000000000000000000000000000000000000000000000000000602082015250565b7f5175616472616e74206f6e65206861732072756e206f7574206f66206c616e6460008201527f7320746f206d696e740000000000000000000000000000000000000000000000602082015250565b7f4552433732313a207472616e7366657220746f206e6f6e20455243373231526560008201527f63656976657220696d706c656d656e7465720000000000000000000000000000602082015250565b7f4f776e61626c653a206e6577206f776e657220697320746865207a65726f206160008201527f6464726573730000000000000000000000000000000000000000000000000000602082015250565b7f4552433732313a20746f6b656e20616c7265616479206d696e74656400000000600082015250565b7f5175616472616e7420666f7572206861732072756e206f7574206f66206c616e60008201527f647320746f206d696e7400000000000000000000000000000000000000000000602082015250565b7f4552433732313a207472616e7366657220746f20746865207a65726f2061646460008201527f7265737300000000000000000000000000000000000000000000000000000000602082015250565b7f4552433732313a20617070726f766520746f2063616c6c657200000000000000600082015250565b7f50757263686173652077696c6c20657863656564206d617820617661696c616260008201527f6c6520706965636573206f66206c616e64000000000000000000000000000000602082015250565b7f53616c65206d7573742062652061637469766520746f206d696e740000000000600082015250565b7f4552433732313a206f70657261746f7220717565727920666f72206e6f6e657860008201527f697374656e7420746f6b656e0000000000000000000000000000000000000000602082015250565b7f5175616472616e74207468726565206d7573742062652061637469766520746f60008201527f206d696e74000000000000000000000000000000000000000000000000000000602082015250565b7f4552433732313a20617070726f76652063616c6c6572206973206e6f74206f7760008201527f6e6572206e6f7220617070726f76656420666f7220616c6c0000000000000000602082015250565b7f4552433732313a2062616c616e636520717565727920666f7220746865207a6560008201527f726f206164647265737300000000000000000000000000000000000000000000602082015250565b7f4552433732313a206f776e657220717565727920666f72206e6f6e657869737460008201527f656e7420746f6b656e0000000000000000000000000000000000000000000000602082015250565b7f45524337323155524953746f726167653a2055524920736574206f66206e6f6e60008201527f6578697374656e7420746f6b656e000000000000000000000000000000000000602082015250565b7f5175616472616e742076616c756520697320696e76616c696400000000000000600082015250565b7f5175616472616e7420666f7572206d7573742062652061637469766520746f2060008201527f6d696e7400000000000000000000000000000000000000000000000000000000602082015250565b7f4552433732313a206d696e7420746f20746865207a65726f2061646472657373600082015250565b7f45524337323155524953746f726167653a2055524920717565727920666f722060008201527f6e6f6e6578697374656e7420746f6b656e000000000000000000000000000000602082015250565b7f4552433732313a20617070726f76656420717565727920666f72206e6f6e657860008201527f697374656e7420746f6b656e0000000000000000000000000000000000000000602082015250565b7f4f776e61626c653a2063616c6c6572206973206e6f7420746865206f776e6572600082015250565b7f56616c756520646f6573206e6f742076616c6964000000000000000000000000600082015250565b7f4552433732313a207472616e73666572206f6620746f6b656e2074686174206960008201527f73206e6f74206f776e0000000000000000000000000000000000000000000000602082015250565b7f4552433732314d657461646174613a2055524920717565727920666f72206e6f60008201527f6e6578697374656e7420746f6b656e0000000000000000000000000000000000602082015250565b7f4552433732313a20617070726f76616c20746f2063757272656e74206f776e6560008201527f7200000000000000000000000000000000000000000000000000000000000000602082015250565b7f4552433732313a207472616e736665722063616c6c6572206973206e6f74206f60008201527f776e6572206e6f7220617070726f766564000000000000000000000000000000602082015250565b7f5175616472616e742074776f206861732072756e206f7574206f66206c616e6460008201527f7320746f206d696e740000000000000000000000000000000000000000000000602082015250565b7f5175616472616e742074776f206d7573742062652061637469766520746f206d60008201527f696e740000000000000000000000000000000000000000000000000000000000602082015250565b7f496e76616c696420706172616d657465722076616c7565210000000000000000600082015250565b7f5175616472616e74207468726565206861732072756e206f7574206f66206c6160008201527f6e647320746f206d696e74000000000000000000000000000000000000000000602082015250565b6143e681613901565b81146143f157600080fd5b50565b6143fd81613913565b811461440857600080fd5b50565b6144148161391f565b811461441f57600080fd5b50565b61442b81613979565b811461443657600080fd5b50565b61444281613983565b811461444d57600080fd5b5056fe68747470733a2f2f676174657761792e70696e6174612e636c6f75642f697066732f516d657235364e746a656f764e79667371484268586256715031736a64776e356531616d50466e524164724c32612fa2646970667358221220d6d379bae64f67d3230d34c520851c8b0f93d19eb21d8553f9966b5029f4093564736f6c63430008040033",
  "linkReferences": {},
  "deployedLinkReferences": {}
}