{
  "_format": "hh-sol-artifact-1",
  "contractName": "Plot",
  "sourceName": "contracts/Plot.sol",
  "abi": [
    {
      "inputs": [],
      "stateMutability": "nonpayable",
      "type": "constructor"
    },
    {
      "anonymous": false,
      "inputs": [
        {
          "indexed": true,
          "internalType": "address",
          "name": "owner",
          "type": "address"
        },
        {
          "indexed": true,
          "internalType": "address",
          "name": "approved",
          "type": "address"
        },
        {
          "indexed": true,
          "internalType": "uint256",
          "name": "tokenId",
          "type": "uint256"
        }
      ],
      "name": "Approval",
      "type": "event"
    },
    {
      "anonymous": false,
      "inputs": [
        {
          "indexed": true,
          "internalType": "address",
          "name": "owner",
          "type": "address"
        },
        {
          "indexed": true,
          "internalType": "address",
          "name": "operator",
          "type": "address"
        },
        {
          "indexed": false,
          "internalType": "bool",
          "name": "approved",
          "type": "bool"
        }
      ],
      "name": "ApprovalForAll",
      "type": "event"
    },
    {
      "anonymous": false,
      "inputs": [
        {
          "indexed": true,
          "internalType": "address",
          "name": "previousOwner",
          "type": "address"
        },
        {
          "indexed": true,
          "internalType": "address",
          "name": "newOwner",
          "type": "address"
        }
      ],
      "name": "OwnershipTransferred",
      "type": "event"
    },
    {
      "anonymous": false,
      "inputs": [
        {
          "indexed": true,
          "internalType": "address",
          "name": "from",
          "type": "address"
        },
        {
          "indexed": true,
          "internalType": "address",
          "name": "to",
          "type": "address"
        },
        {
          "indexed": true,
          "internalType": "uint256",
          "name": "tokenId",
          "type": "uint256"
        }
      ],
      "name": "Transfer",
      "type": "event"
    },
    {
      "inputs": [
        {
          "internalType": "address",
          "name": "to",
          "type": "address"
        },
        {
          "internalType": "uint256",
          "name": "tokenId",
          "type": "uint256"
        }
      ],
      "name": "approve",
      "outputs": [],
      "stateMutability": "nonpayable",
      "type": "function"
    },
    {
      "inputs": [
        {
          "internalType": "address",
          "name": "owner",
          "type": "address"
        }
      ],
      "name": "balanceOf",
      "outputs": [
        {
          "internalType": "uint256",
          "name": "",
          "type": "uint256"
        }
      ],
      "stateMutability": "view",
      "type": "function"
    },
    {
      "inputs": [
        {
          "internalType": "uint8",
          "name": "quadrant",
          "type": "uint8"
        }
      ],
      "name": "buyLand",
      "outputs": [
        {
          "internalType": "uint256",
          "name": "",
          "type": "uint256"
        }
      ],
      "stateMutability": "payable",
      "type": "function"
    },
    {
      "inputs": [
        {
          "internalType": "uint8",
          "name": "quadrant",
          "type": "uint8"
        }
      ],
      "name": "flipQuadrantState",
      "outputs": [],
      "stateMutability": "nonpayable",
      "type": "function"
    },
    {
      "inputs": [],
      "name": "flipSaleState",
      "outputs": [],
      "stateMutability": "nonpayable",
      "type": "function"
    },
    {
      "inputs": [
        {
          "internalType": "uint256",
          "name": "tokenId",
          "type": "uint256"
        }
      ],
      "name": "getApproved",
      "outputs": [
        {
          "internalType": "address",
          "name": "",
          "type": "address"
        }
      ],
      "stateMutability": "view",
      "type": "function"
    },
    {
      "inputs": [
        {
          "internalType": "address",
          "name": "owner",
          "type": "address"
        }
      ],
      "name": "getLandsByOwner",
      "outputs": [
        {
          "internalType": "uint256[]",
          "name": "",
          "type": "uint256[]"
        }
      ],
      "stateMutability": "view",
      "type": "function"
    },
    {
      "inputs": [
        {
          "internalType": "address",
          "name": "owner",
          "type": "address"
        },
        {
          "internalType": "address",
          "name": "operator",
          "type": "address"
        }
      ],
      "name": "isApprovedForAll",
      "outputs": [
        {
          "internalType": "bool",
          "name": "",
          "type": "bool"
        }
      ],
      "stateMutability": "view",
      "type": "function"
    },
    {
      "inputs": [],
      "name": "name",
      "outputs": [
        {
          "internalType": "string",
          "name": "",
          "type": "string"
        }
      ],
      "stateMutability": "view",
      "type": "function"
    },
    {
      "inputs": [],
      "name": "owner",
      "outputs": [
        {
          "internalType": "address",
          "name": "",
          "type": "address"
        }
      ],
      "stateMutability": "view",
      "type": "function"
    },
    {
      "inputs": [
        {
          "internalType": "uint256",
          "name": "tokenId",
          "type": "uint256"
        }
      ],
      "name": "ownerOf",
      "outputs": [
        {
          "internalType": "address",
          "name": "",
          "type": "address"
        }
      ],
      "stateMutability": "view",
      "type": "function"
    },
    {
      "inputs": [],
      "name": "quadrantFourIsActive",
      "outputs": [
        {
          "internalType": "bool",
          "name": "",
          "type": "bool"
        }
      ],
      "stateMutability": "view",
      "type": "function"
    },
    {
      "inputs": [],
      "name": "quadrantOneIsActive",
      "outputs": [
        {
          "internalType": "bool",
          "name": "",
          "type": "bool"
        }
      ],
      "stateMutability": "view",
      "type": "function"
    },
    {
      "inputs": [],
      "name": "quadrantThreeIsActive",
      "outputs": [
        {
          "internalType": "bool",
          "name": "",
          "type": "bool"
        }
      ],
      "stateMutability": "view",
      "type": "function"
    },
    {
      "inputs": [],
      "name": "quadrantTwoIsActive",
      "outputs": [
        {
          "internalType": "bool",
          "name": "",
          "type": "bool"
        }
      ],
      "stateMutability": "view",
      "type": "function"
    },
    {
      "inputs": [],
      "name": "renounceOwnership",
      "outputs": [],
      "stateMutability": "nonpayable",
      "type": "function"
    },
    {
      "inputs": [
        {
          "internalType": "address",
          "name": "from",
          "type": "address"
        },
        {
          "internalType": "address",
          "name": "to",
          "type": "address"
        },
        {
          "internalType": "uint256",
          "name": "tokenId",
          "type": "uint256"
        }
      ],
      "name": "safeTransferFrom",
      "outputs": [],
      "stateMutability": "nonpayable",
      "type": "function"
    },
    {
      "inputs": [
        {
          "internalType": "address",
          "name": "from",
          "type": "address"
        },
        {
          "internalType": "address",
          "name": "to",
          "type": "address"
        },
        {
          "internalType": "uint256",
          "name": "tokenId",
          "type": "uint256"
        },
        {
          "internalType": "bytes",
          "name": "_data",
          "type": "bytes"
        }
      ],
      "name": "safeTransferFrom",
      "outputs": [],
      "stateMutability": "nonpayable",
      "type": "function"
    },
    {
      "inputs": [],
      "name": "saleIsActive",
      "outputs": [
        {
          "internalType": "bool",
          "name": "",
          "type": "bool"
        }
      ],
      "stateMutability": "view",
      "type": "function"
    },
    {
      "inputs": [
        {
          "internalType": "address",
          "name": "operator",
          "type": "address"
        },
        {
          "internalType": "bool",
          "name": "approved",
          "type": "bool"
        }
      ],
      "name": "setApprovalForAll",
      "outputs": [],
      "stateMutability": "nonpayable",
      "type": "function"
    },
    {
      "inputs": [
        {
          "internalType": "uint256",
          "name": "price",
          "type": "uint256"
        }
      ],
      "name": "setLandPrice",
      "outputs": [],
      "stateMutability": "nonpayable",
      "type": "function"
    },
    {
      "inputs": [
        {
          "internalType": "bytes4",
          "name": "interfaceId",
          "type": "bytes4"
        }
      ],
      "name": "supportsInterface",
      "outputs": [
        {
          "internalType": "bool",
          "name": "",
          "type": "bool"
        }
      ],
      "stateMutability": "view",
      "type": "function"
    },
    {
      "inputs": [],
      "name": "symbol",
      "outputs": [
        {
          "internalType": "string",
          "name": "",
          "type": "string"
        }
      ],
      "stateMutability": "view",
      "type": "function"
    },
    {
      "inputs": [
        {
          "internalType": "uint256",
          "name": "tokenId",
          "type": "uint256"
        }
      ],
      "name": "tokenURI",
      "outputs": [
        {
          "internalType": "string",
          "name": "",
          "type": "string"
        }
      ],
      "stateMutability": "view",
      "type": "function"
    },
    {
      "inputs": [],
      "name": "totalSupply",
      "outputs": [
        {
          "internalType": "uint16",
          "name": "",
          "type": "uint16"
        }
      ],
      "stateMutability": "pure",
      "type": "function"
    },
    {
      "inputs": [
        {
          "internalType": "address",
          "name": "from",
          "type": "address"
        },
        {
          "internalType": "address",
          "name": "to",
          "type": "address"
        },
        {
          "internalType": "uint256",
          "name": "tokenId",
          "type": "uint256"
        }
      ],
      "name": "transferFrom",
      "outputs": [],
      "stateMutability": "nonpayable",
      "type": "function"
    },
    {
      "inputs": [
        {
          "internalType": "address",
          "name": "newOwner",
          "type": "address"
        }
      ],
      "name": "transferOwnership",
      "outputs": [],
      "stateMutability": "nonpayable",
      "type": "function"
    }
  ],
  "bytecode": "0x608060405260006009556000600a60006101000a81548160ff0219169083151502179055506001600a60016101000a81548161ffff021916908361ffff160217905550612f60600a60036101000a81548161ffff021916908361ffff160217905550615e7c600a60056101000a81548161ffff021916908361ffff160217905550618d26600a60076101000a81548161ffff021916908361ffff1602179055506001600a60096101000a81548160ff0219169083151502179055506000600a806101000a81548160ff0219169083151502179055506000600a600b6101000a81548160ff0219169083151502179055506000600a600c6101000a81548160ff0219169083151502179055503480156200011757600080fd5b506040518060400160405280600481526020017f506c6f74000000000000000000000000000000000000000000000000000000008152506040518060400160405280600181526020017f500000000000000000000000000000000000000000000000000000000000000081525081600090805190602001906200019c929190620002ac565b508060019080519060200190620001b5929190620002ac565b505050620001d8620001cc620001de60201b60201c565b620001e660201b60201c565b620003c1565b600033905090565b6000600760009054906101000a900473ffffffffffffffffffffffffffffffffffffffff16905081600760006101000a81548173ffffffffffffffffffffffffffffffffffffffff021916908373ffffffffffffffffffffffffffffffffffffffff1602179055508173ffffffffffffffffffffffffffffffffffffffff168173ffffffffffffffffffffffffffffffffffffffff167f8be0079c531659141344cd1fd0a4f28419497f9722a3daafe3b4186f6b6457e060405160405180910390a35050565b828054620002ba906200035c565b90600052602060002090601f016020900481019282620002de57600085556200032a565b82601f10620002f957805160ff19168380011785556200032a565b828001600101855582156200032a579182015b82811115620003295782518255916020019190600101906200030c565b5b5090506200033991906200033d565b5090565b5b80821115620003585760008160009055506001016200033e565b5090565b600060028204905060018216806200037557607f821691505b602082108114156200038c576200038b62000392565b5b50919050565b7f4e487b7100000000000000000000000000000000000000000000000000000000600052602260045260246000fd5b61448180620003d16000396000f3fe60806040526004361061019c5760003560e01c80635a2cc5fb116100ec578063b88d4fde1161008a578063cd643c9711610064578063cd643c97146105b9578063e985e9c5146105e4578063eb8d244414610621578063f2fde38b1461064c5761019c565b8063b88d4fde1461052a578063bd91cc7514610553578063c87b56dd1461057c5761019c565b8063715018a6116100c6578063715018a6146104945780638da5cb5b146104ab57806395d89b41146104d6578063a22cb465146105015761019c565b80635a2cc5fb146103ef5780636352211e1461041a57806370a08231146104575761019c565b806323b872dd1161015957806342842e0e1161013357806342842e0e1461032e578063455b9d23146103575780634763c8ce146103945780634e29c2e2146103bf5761019c565b806323b872dd146102c35780632d2f9652146102ec57806334918dfd146103175761019c565b806301ffc9a7146101a1578063022565f1146101de57806306fdde0314610207578063081812fc14610232578063095ea7b31461026f57806318160ddd14610298575b600080fd5b3480156101ad57600080fd5b506101c860048036038101906101c39190612ba1565b610675565b6040516101d59190613293565b60405180910390f35b3480156101ea57600080fd5b5061020560048036038101906102009190612bf3565b610757565b005b34801561021357600080fd5b5061021c6107dd565b60405161022991906132ae565b60405180910390f35b34801561023e57600080fd5b5061025960048036038101906102549190612bf3565b61086f565b604051610266919061320a565b60405180910390f35b34801561027b57600080fd5b5061029660048036038101906102919190612b65565b6108f4565b005b3480156102a457600080fd5b506102ad610a0c565b6040516102ba91906136b0565b60405180910390f35b3480156102cf57600080fd5b506102ea60048036038101906102e59190612a5f565b610a16565b005b3480156102f857600080fd5b50610301610a76565b60405161030e9190613293565b60405180910390f35b34801561032357600080fd5b5061032c610a89565b005b34801561033a57600080fd5b5061035560048036038101906103509190612a5f565b610b31565b005b34801561036357600080fd5b5061037e600480360381019061037991906129fa565b610b51565b60405161038b9190613271565b60405180910390f35b3480156103a057600080fd5b506103a9610c96565b6040516103b69190613293565b60405180910390f35b6103d960048036038101906103d49190612c1c565b610ca9565b6040516103e691906136cb565b60405180910390f35b3480156103fb57600080fd5b5061040461125b565b6040516104119190613293565b60405180910390f35b34801561042657600080fd5b50610441600480360381019061043c9190612bf3565b61126c565b60405161044e919061320a565b60405180910390f35b34801561046357600080fd5b5061047e600480360381019061047991906129fa565b61131e565b60405161048b91906136cb565b60405180910390f35b3480156104a057600080fd5b506104a96113d6565b005b3480156104b757600080fd5b506104c061145e565b6040516104cd919061320a565b60405180910390f35b3480156104e257600080fd5b506104eb611488565b6040516104f891906132ae565b60405180910390f35b34801561050d57600080fd5b5061052860048036038101906105239190612b29565b61151a565b005b34801561053657600080fd5b50610551600480360381019061054c9190612aae565b611530565b005b34801561055f57600080fd5b5061057a60048036038101906105759190612c1c565b611592565b005b34801561058857600080fd5b506105a3600480360381019061059e9190612bf3565b61174e565b6040516105b091906132ae565b60405180910390f35b3480156105c557600080fd5b506105ce61185d565b6040516105db9190613293565b60405180910390f35b3480156105f057600080fd5b5061060b60048036038101906106069190612a23565b611870565b6040516106189190613293565b60405180910390f35b34801561062d57600080fd5b50610636611904565b6040516106439190613293565b60405180910390f35b34801561065857600080fd5b50610673600480360381019061066e91906129fa565b611917565b005b60007f80ac58cd000000000000000000000000000000000000000000000000000000007bffffffffffffffffffffffffffffffffffffffffffffffffffffffff1916827bffffffffffffffffffffffffffffffffffffffffffffffffffffffff1916148061074057507f5b5e139f000000000000000000000000000000000000000000000000000000007bffffffffffffffffffffffffffffffffffffffffffffffffffffffff1916827bffffffffffffffffffffffffffffffffffffffffffffffffffffffff1916145b80610750575061074f82611a0f565b5b9050919050565b61075f611a79565b73ffffffffffffffffffffffffffffffffffffffff1661077d61145e565b73ffffffffffffffffffffffffffffffffffffffff16146107d3576040517f08c379a00000000000000000000000000000000000000000000000000000000081526004016107ca90613570565b60405180910390fd5b8060098190555050565b6060600080546107ec9061397c565b80601f01602080910402602001604051908101604052809291908181526020018280546108189061397c565b80156108655780601f1061083a57610100808354040283529160200191610865565b820191906000526020600020905b81548152906001019060200180831161084857829003601f168201915b5050505050905090565b600061087a82611a81565b6108b9576040517f08c379a00000000000000000000000000000000000000000000000000000000081526004016108b090613550565b60405180910390fd5b6004600083815260200190815260200160002060009054906101000a900473ffffffffffffffffffffffffffffffffffffffff169050919050565b60006108ff8261126c565b90508073ffffffffffffffffffffffffffffffffffffffff168373ffffffffffffffffffffffffffffffffffffffff161415610970576040517f08c379a0000000000000000000000000000000000000000000000000000000008152600401610967906135f0565b60405180910390fd5b8073ffffffffffffffffffffffffffffffffffffffff1661098f611a79565b73ffffffffffffffffffffffffffffffffffffffff1614806109be57506109bd816109b8611a79565b611870565b5b6109fd576040517f08c379a00000000000000000000000000000000000000000000000000000000081526004016109f490613450565b60405180910390fd5b610a078383611aed565b505050565b600061bb8d905090565b610a27610a21611a79565b82611ba6565b610a66576040517f08c379a0000000000000000000000000000000000000000000000000000000008152600401610a5d90613610565b60405180910390fd5b610a71838383611c84565b505050565b600a600b9054906101000a900460ff1681565b610a91611a79565b73ffffffffffffffffffffffffffffffffffffffff16610aaf61145e565b73ffffffffffffffffffffffffffffffffffffffff1614610b05576040517f08c379a0000000000000000000000000000000000000000000000000000000008152600401610afc90613570565b60405180910390fd5b600a60009054906101000a900460ff1615600a60006101000a81548160ff021916908315150217905550565b610b4c83838360405180602001604052806000815250611530565b505050565b60606000610b5e8361131e565b67ffffffffffffffff811115610b9d577f4e487b7100000000000000000000000000000000000000000000000000000000600052604160045260246000fd5b604051908082528060200260200182016040528015610bcb5781602001602082028036833780820191505090505b509050600080600190505b610be06008611ee0565b811015610c8b578473ffffffffffffffffffffffffffffffffffffffff16610c078261126c565b73ffffffffffffffffffffffffffffffffffffffff161415610c785780838381518110610c5d577f4e487b7100000000000000000000000000000000000000000000000000000000600052603260045260246000fd5b6020026020010181815250508180610c74906139df565b9250505b8080610c83906139df565b915050610bd6565b508192505050919050565b600a600c9054906101000a900460ff1681565b6000600a60009054906101000a900460ff16610cfa576040517f08c379a0000000000000000000000000000000000000000000000000000000008152600401610cf1906133f0565b60405180910390fd5b600954341015610d3f576040517f08c379a0000000000000000000000000000000000000000000000000000000008152600401610d3690613590565b60405180910390fd5b60008260ff16118015610d55575060058260ff16105b610d94576040517f08c379a0000000000000000000000000000000000000000000000000000000008152600401610d8b906134d0565b60405180910390fd5b61bb8d61ffff166001610da76008611ee0565b610db191906137f0565b1115610df2576040517f08c379a0000000000000000000000000000000000000000000000000000000008152600401610de9906133d0565b60405180910390fd5b600060018360ff161415610efe57600a60099054906101000a900460ff16610e4f576040517f08c379a0000000000000000000000000000000000000000000000000000000008152600401610e46906132d0565b60405180910390fd5b612f5f61ffff16600a60019054906101000a900461ffff1661ffff161115610eac576040517f08c379a0000000000000000000000000000000000000000000000000000000008152600401610ea3906132f0565b60405180910390fd5b600a60019054906101000a900461ffff1690506001600a60018282829054906101000a900461ffff16610edf91906137b8565b92506101000a81548161ffff021916908361ffff160217905550611219565b60028360ff16141561100657600a8054906101000a900460ff16610f57576040517f08c379a0000000000000000000000000000000000000000000000000000000008152600401610f4e90613650565b60405180910390fd5b615e7b61ffff16600a60039054906101000a900461ffff1661ffff161115610fb4576040517f08c379a0000000000000000000000000000000000000000000000000000000008152600401610fab90613630565b60405180910390fd5b600a60039054906101000a900461ffff1690506001600a60038282829054906101000a900461ffff16610fe791906137b8565b92506101000a81548161ffff021916908361ffff160217905550611218565b60038360ff16141561111057600a600b9054906101000a900460ff16611061576040517f08c379a000000000000000000000000000000000000000000000000000000000815260040161105890613430565b60405180910390fd5b618d2561ffff16600a60059054906101000a900461ffff1661ffff1611156110be576040517f08c379a00000000000000000000000000000000000000000000000000000000081526004016110b590613690565b60405180910390fd5b600a60059054906101000a900461ffff1690506001600a60058282829054906101000a900461ffff166110f191906137b8565b92506101000a81548161ffff021916908361ffff160217905550611217565b60048360ff16141561121657600a600c9054906101000a900460ff1661116b576040517f08c379a0000000000000000000000000000000000000000000000000000000008152600401611162906134f0565b60405180910390fd5b61bb8d61ffff16600a60079054906101000a900461ffff1661ffff1611156111c8576040517f08c379a00000000000000000000000000000000000000000000000000000000081526004016111bf90613370565b60405180910390fd5b600a60079054906101000a900461ffff1690506001600a60078282829054906101000a900461ffff166111fb91906137b8565b92506101000a81548161ffff021916908361ffff1602179055505b5b5b5b6112236008611eee565b600061122f6008611ee0565b905061123b3382611f04565b6112518161124c8461ffff1661174e565b611f22565b8092505050919050565b600a8054906101000a900460ff1681565b6000806002600084815260200190815260200160002060009054906101000a900473ffffffffffffffffffffffffffffffffffffffff169050600073ffffffffffffffffffffffffffffffffffffffff168173ffffffffffffffffffffffffffffffffffffffff161415611315576040517f08c379a000000000000000000000000000000000000000000000000000000000815260040161130c90613490565b60405180910390fd5b80915050919050565b60008073ffffffffffffffffffffffffffffffffffffffff168273ffffffffffffffffffffffffffffffffffffffff16141561138f576040517f08c379a000000000000000000000000000000000000000000000000000000000815260040161138690613470565b60405180910390fd5b600360008373ffffffffffffffffffffffffffffffffffffffff1673ffffffffffffffffffffffffffffffffffffffff168152602001908152602001600020549050919050565b6113de611a79565b73ffffffffffffffffffffffffffffffffffffffff166113fc61145e565b73ffffffffffffffffffffffffffffffffffffffff1614611452576040517f08c379a000000000000000000000000000000000000000000000000000000000815260040161144990613570565b60405180910390fd5b61145c6000611f96565b565b6000600760009054906101000a900473ffffffffffffffffffffffffffffffffffffffff16905090565b6060600180546114979061397c565b80601f01602080910402602001604051908101604052809291908181526020018280546114c39061397c565b80156115105780601f106114e557610100808354040283529160200191611510565b820191906000526020600020905b8154815290600101906020018083116114f357829003601f168201915b5050505050905090565b61152c611525611a79565b838361205c565b5050565b61154161153b611a79565b83611ba6565b611580576040517f08c379a000000000000000000000000000000000000000000000000000000000815260040161157790613610565b60405180910390fd5b61158c848484846121c9565b50505050565b61159a611a79565b73ffffffffffffffffffffffffffffffffffffffff166115b861145e565b73ffffffffffffffffffffffffffffffffffffffff161461160e576040517f08c379a000000000000000000000000000000000000000000000000000000000815260040161160590613570565b60405180910390fd5b60008160ff16118015611624575060058160ff16105b611663576040517f08c379a000000000000000000000000000000000000000000000000000000000815260040161165a90613670565b60405180910390fd5b60018160ff16141561169e57600a60099054906101000a900460ff1615600a60096101000a81548160ff02191690831515021790555061174b565b60028160ff1614156116d657600a8054906101000a900460ff1615600a806101000a81548160ff02191690831515021790555061174a565b60038160ff16141561171157600a600b9054906101000a900460ff1615600a600b6101000a81548160ff021916908315150217905550611749565b60048160ff16141561174857600a600c9054906101000a900460ff1615600a600c6101000a81548160ff0219169083151502179055505b5b5b5b50565b606061175982611a81565b611798576040517f08c379a000000000000000000000000000000000000000000000000000000000815260040161178f90613530565b60405180910390fd5b60006006600084815260200190815260200160002080546117b89061397c565b80601f01602080910402602001604051908101604052809291908181526020018280546117e49061397c565b80156118315780601f1061180657610100808354040283529160200191611831565b820191906000526020600020905b81548152906001019060200180831161181457829003601f168201915b5050505050905060008151111561184b5780915050611858565b61185483612225565b9150505b919050565b600a60099054906101000a900460ff1681565b6000600560008473ffffffffffffffffffffffffffffffffffffffff1673ffffffffffffffffffffffffffffffffffffffff16815260200190815260200160002060008373ffffffffffffffffffffffffffffffffffffffff1673ffffffffffffffffffffffffffffffffffffffff16815260200190815260200160002060009054906101000a900460ff16905092915050565b600a60009054906101000a900460ff1681565b61191f611a79565b73ffffffffffffffffffffffffffffffffffffffff1661193d61145e565b73ffffffffffffffffffffffffffffffffffffffff1614611993576040517f08c379a000000000000000000000000000000000000000000000000000000000815260040161198a90613570565b60405180910390fd5b600073ffffffffffffffffffffffffffffffffffffffff168173ffffffffffffffffffffffffffffffffffffffff161415611a03576040517f08c379a00000000000000000000000000000000000000000000000000000000081526004016119fa90613330565b60405180910390fd5b611a0c81611f96565b50565b60007f01ffc9a7000000000000000000000000000000000000000000000000000000007bffffffffffffffffffffffffffffffffffffffffffffffffffffffff1916827bffffffffffffffffffffffffffffffffffffffffffffffffffffffff1916149050919050565b600033905090565b60008073ffffffffffffffffffffffffffffffffffffffff166002600084815260200190815260200160002060009054906101000a900473ffffffffffffffffffffffffffffffffffffffff1673ffffffffffffffffffffffffffffffffffffffff1614159050919050565b816004600083815260200190815260200160002060006101000a81548173ffffffffffffffffffffffffffffffffffffffff021916908373ffffffffffffffffffffffffffffffffffffffff160217905550808273ffffffffffffffffffffffffffffffffffffffff16611b608361126c565b73ffffffffffffffffffffffffffffffffffffffff167f8c5be1e5ebec7d5bd14f71427d1e84f3dd0314c0f7b2291e5b200ac8c7c3b92560405160405180910390a45050565b6000611bb182611a81565b611bf0576040517f08c379a0000000000000000000000000000000000000000000000000000000008152600401611be790613410565b60405180910390fd5b6000611bfb8361126c565b90508073ffffffffffffffffffffffffffffffffffffffff168473ffffffffffffffffffffffffffffffffffffffff161480611c6a57508373ffffffffffffffffffffffffffffffffffffffff16611c528461086f565b73ffffffffffffffffffffffffffffffffffffffff16145b80611c7b5750611c7a8185611870565b5b91505092915050565b8273ffffffffffffffffffffffffffffffffffffffff16611ca48261126c565b73ffffffffffffffffffffffffffffffffffffffff1614611cfa576040517f08c379a0000000000000000000000000000000000000000000000000000000008152600401611cf1906135b0565b60405180910390fd5b600073ffffffffffffffffffffffffffffffffffffffff168273ffffffffffffffffffffffffffffffffffffffff161415611d6a576040517f08c379a0000000000000000000000000000000000000000000000000000000008152600401611d6190613390565b60405180910390fd5b611d758383836122cc565b611d80600082611aed565b6001600360008573ffffffffffffffffffffffffffffffffffffffff1673ffffffffffffffffffffffffffffffffffffffff1681526020019081526020016000206000828254611dd09190613877565b925050819055506001600360008473ffffffffffffffffffffffffffffffffffffffff1673ffffffffffffffffffffffffffffffffffffffff1681526020019081526020016000206000828254611e2791906137f0565b92505081905550816002600083815260200190815260200160002060006101000a81548173ffffffffffffffffffffffffffffffffffffffff021916908373ffffffffffffffffffffffffffffffffffffffff160217905550808273ffffffffffffffffffffffffffffffffffffffff168473ffffffffffffffffffffffffffffffffffffffff167fddf252ad1be2c89b69c2b068fc378daa952ba7f163c4a11628f55a4df523b3ef60405160405180910390a4505050565b600081600001549050919050565b6001816000016000828254019250508190555050565b611f1e8282604051806020016040528060008152506122d1565b5050565b611f2b82611a81565b611f6a576040517f08c379a0000000000000000000000000000000000000000000000000000000008152600401611f61906134b0565b60405180910390fd5b80600660008481526020019081526020016000209080519060200190611f91929190612871565b505050565b6000600760009054906101000a900473ffffffffffffffffffffffffffffffffffffffff16905081600760006101000a81548173ffffffffffffffffffffffffffffffffffffffff021916908373ffffffffffffffffffffffffffffffffffffffff1602179055508173ffffffffffffffffffffffffffffffffffffffff168173ffffffffffffffffffffffffffffffffffffffff167f8be0079c531659141344cd1fd0a4f28419497f9722a3daafe3b4186f6b6457e060405160405180910390a35050565b8173ffffffffffffffffffffffffffffffffffffffff168373ffffffffffffffffffffffffffffffffffffffff1614156120cb576040517f08c379a00000000000000000000000000000000000000000000000000000000081526004016120c2906133b0565b60405180910390fd5b80600560008573ffffffffffffffffffffffffffffffffffffffff1673ffffffffffffffffffffffffffffffffffffffff16815260200190815260200160002060008473ffffffffffffffffffffffffffffffffffffffff1673ffffffffffffffffffffffffffffffffffffffff16815260200190815260200160002060006101000a81548160ff0219169083151502179055508173ffffffffffffffffffffffffffffffffffffffff168373ffffffffffffffffffffffffffffffffffffffff167f17307eab39ab6107e8899845ad3d59bd9653f200f220920489ca2b5937696c31836040516121bc9190613293565b60405180910390a3505050565b6121d4848484611c84565b6121e08484848461232c565b61221f576040517f08c379a000000000000000000000000000000000000000000000000000000000815260040161221690613310565b60405180910390fd5b50505050565b606061223082611a81565b61226f576040517f08c379a0000000000000000000000000000000000000000000000000000000008152600401612266906135d0565b60405180910390fd5b60006122796124c3565b9050600081511161229957604051806020016040528060008152506122c4565b806122a3846124e3565b6040516020016122b49291906131e6565b6040516020818303038152906040525b915050919050565b505050565b6122db8383612690565b6122e8600084848461232c565b612327576040517f08c379a000000000000000000000000000000000000000000000000000000000815260040161231e90613310565b60405180910390fd5b505050565b600061234d8473ffffffffffffffffffffffffffffffffffffffff1661285e565b156124b6578373ffffffffffffffffffffffffffffffffffffffff1663150b7a02612376611a79565b8786866040518563ffffffff1660e01b81526004016123989493929190613225565b602060405180830381600087803b1580156123b257600080fd5b505af19250505080156123e357506040513d601f19601f820116820180604052508101906123e09190612bca565b60015b612466573d8060008114612413576040519150601f19603f3d011682016040523d82523d6000602084013e612418565b606091505b5060008151141561245e576040517f08c379a000000000000000000000000000000000000000000000000000000000815260040161245590613310565b60405180910390fd5b805181602001fd5b63150b7a0260e01b7bffffffffffffffffffffffffffffffffffffffffffffffffffffffff1916817bffffffffffffffffffffffffffffffffffffffffffffffffffffffff1916149150506124bb565b600190505b949350505050565b60606040518060800160405280605181526020016143fb60519139905090565b6060600082141561252b576040518060400160405280600181526020017f3000000000000000000000000000000000000000000000000000000000000000815250905061268b565b600082905060005b6000821461255d578080612546906139df565b915050600a826125569190613846565b9150612533565b60008167ffffffffffffffff81111561259f577f4e487b7100000000000000000000000000000000000000000000000000000000600052604160045260246000fd5b6040519080825280601f01601f1916602001820160405280156125d15781602001600182028036833780820191505090505b5090505b60008514612684576001826125ea9190613877565b9150600a856125f99190613a28565b603061260591906137f0565b60f81b818381518110612641577f4e487b7100000000000000000000000000000000000000000000000000000000600052603260045260246000fd5b60200101907effffffffffffffffffffffffffffffffffffffffffffffffffffffffffffff1916908160001a905350600a8561267d9190613846565b94506125d5565b8093505050505b919050565b600073ffffffffffffffffffffffffffffffffffffffff168273ffffffffffffffffffffffffffffffffffffffff161415612700576040517f08c379a00000000000000000000000000000000000000000000000000000000081526004016126f790613510565b60405180910390fd5b61270981611a81565b15612749576040517f08c379a000000000000000000000000000000000000000000000000000000000815260040161274090613350565b60405180910390fd5b612755600083836122cc565b6001600360008473ffffffffffffffffffffffffffffffffffffffff1673ffffffffffffffffffffffffffffffffffffffff16815260200190815260200160002060008282546127a591906137f0565b92505081905550816002600083815260200190815260200160002060006101000a81548173ffffffffffffffffffffffffffffffffffffffff021916908373ffffffffffffffffffffffffffffffffffffffff160217905550808273ffffffffffffffffffffffffffffffffffffffff16600073ffffffffffffffffffffffffffffffffffffffff167fddf252ad1be2c89b69c2b068fc378daa952ba7f163c4a11628f55a4df523b3ef60405160405180910390a45050565b600080823b905060008111915050919050565b82805461287d9061397c565b90600052602060002090601f01602090048101928261289f57600085556128e6565b82601f106128b857805160ff19168380011785556128e6565b828001600101855582156128e6579182015b828111156128e55782518255916020019190600101906128ca565b5b5090506128f391906128f7565b5090565b5b808211156129105760008160009055506001016128f8565b5090565b60006129276129228461370b565b6136e6565b90508281526020810184848401111561293f57600080fd5b61294a84828561393a565b509392505050565b60008135905061296181614387565b92915050565b6000813590506129768161439e565b92915050565b60008135905061298b816143b5565b92915050565b6000815190506129a0816143b5565b92915050565b600082601f8301126129b757600080fd5b81356129c7848260208601612914565b91505092915050565b6000813590506129df816143cc565b92915050565b6000813590506129f4816143e3565b92915050565b600060208284031215612a0c57600080fd5b6000612a1a84828501612952565b91505092915050565b60008060408385031215612a3657600080fd5b6000612a4485828601612952565b9250506020612a5585828601612952565b9150509250929050565b600080600060608486031215612a7457600080fd5b6000612a8286828701612952565b9350506020612a9386828701612952565b9250506040612aa4868287016129d0565b9150509250925092565b60008060008060808587031215612ac457600080fd5b6000612ad287828801612952565b9450506020612ae387828801612952565b9350506040612af4878288016129d0565b925050606085013567ffffffffffffffff811115612b1157600080fd5b612b1d878288016129a6565b91505092959194509250565b60008060408385031215612b3c57600080fd5b6000612b4a85828601612952565b9250506020612b5b85828601612967565b9150509250929050565b60008060408385031215612b7857600080fd5b6000612b8685828601612952565b9250506020612b97858286016129d0565b9150509250929050565b600060208284031215612bb357600080fd5b6000612bc18482850161297c565b91505092915050565b600060208284031215612bdc57600080fd5b6000612bea84828501612991565b91505092915050565b600060208284031215612c0557600080fd5b6000612c13848285016129d0565b91505092915050565b600060208284031215612c2e57600080fd5b6000612c3c848285016129e5565b91505092915050565b6000612c5183836131c8565b60208301905092915050565b612c66816138ab565b82525050565b6000612c778261374c565b612c81818561377a565b9350612c8c8361373c565b8060005b83811015612cbd578151612ca48882612c45565b9750612caf8361376d565b925050600181019050612c90565b5085935050505092915050565b612cd3816138bd565b82525050565b6000612ce482613757565b612cee818561378b565b9350612cfe818560208601613949565b612d0781613b15565b840191505092915050565b6000612d1d82613762565b612d27818561379c565b9350612d37818560208601613949565b612d4081613b15565b840191505092915050565b6000612d5682613762565b612d6081856137ad565b9350612d70818560208601613949565b80840191505092915050565b6000612d8960238361379c565b9150612d9482613b26565b604082019050919050565b6000612dac60298361379c565b9150612db782613b75565b604082019050919050565b6000612dcf60328361379c565b9150612dda82613bc4565b604082019050919050565b6000612df260268361379c565b9150612dfd82613c13565b604082019050919050565b6000612e15601c8361379c565b9150612e2082613c62565b602082019050919050565b6000612e38602a8361379c565b9150612e4382613c8b565b604082019050919050565b6000612e5b60248361379c565b9150612e6682613cda565b604082019050919050565b6000612e7e60198361379c565b9150612e8982613d29565b602082019050919050565b6000612ea160318361379c565b9150612eac82613d52565b604082019050919050565b6000612ec4601b8361379c565b9150612ecf82613da1565b602082019050919050565b6000612ee7602c8361379c565b9150612ef282613dca565b604082019050919050565b6000612f0a60258361379c565b9150612f1582613e19565b604082019050919050565b6000612f2d60388361379c565b9150612f3882613e68565b604082019050919050565b6000612f50602a8361379c565b9150612f5b82613eb7565b604082019050919050565b6000612f7360298361379c565b9150612f7e82613f06565b604082019050919050565b6000612f96602e8361379c565b9150612fa182613f55565b604082019050919050565b6000612fb960198361379c565b9150612fc482613fa4565b602082019050919050565b6000612fdc60248361379c565b9150612fe782613fcd565b604082019050919050565b6000612fff60208361379c565b915061300a8261401c565b602082019050919050565b600061302260318361379c565b915061302d82614045565b604082019050919050565b6000613045602c8361379c565b915061305082614094565b604082019050919050565b600061306860208361379c565b9150613073826140e3565b602082019050919050565b600061308b60148361379c565b91506130968261410c565b602082019050919050565b60006130ae60298361379c565b91506130b982614135565b604082019050919050565b60006130d1602f8361379c565b91506130dc82614184565b604082019050919050565b60006130f460218361379c565b91506130ff826141d3565b604082019050919050565b600061311760318361379c565b915061312282614222565b604082019050919050565b600061313a60298361379c565b915061314582614271565b604082019050919050565b600061315d60238361379c565b9150613168826142c0565b604082019050919050565b600061318060188361379c565b915061318b8261430f565b602082019050919050565b60006131a3602b8361379c565b91506131ae82614338565b604082019050919050565b6131c2816138f5565b82525050565b6131d181613923565b82525050565b6131e081613923565b82525050565b60006131f28285612d4b565b91506131fe8284612d4b565b91508190509392505050565b600060208201905061321f6000830184612c5d565b92915050565b600060808201905061323a6000830187612c5d565b6132476020830186612c5d565b61325460408301856131d7565b81810360608301526132668184612cd9565b905095945050505050565b6000602082019050818103600083015261328b8184612c6c565b905092915050565b60006020820190506132a86000830184612cca565b92915050565b600060208201905081810360008301526132c88184612d12565b905092915050565b600060208201905081810360008301526132e981612d7c565b9050919050565b6000602082019050818103600083015261330981612d9f565b9050919050565b6000602082019050818103600083015261332981612dc2565b9050919050565b6000602082019050818103600083015261334981612de5565b9050919050565b6000602082019050818103600083015261336981612e08565b9050919050565b6000602082019050818103600083015261338981612e2b565b9050919050565b600060208201905081810360008301526133a981612e4e565b9050919050565b600060208201905081810360008301526133c981612e71565b9050919050565b600060208201905081810360008301526133e981612e94565b9050919050565b6000602082019050818103600083015261340981612eb7565b9050919050565b6000602082019050818103600083015261342981612eda565b9050919050565b6000602082019050818103600083015261344981612efd565b9050919050565b6000602082019050818103600083015261346981612f20565b9050919050565b6000602082019050818103600083015261348981612f43565b9050919050565b600060208201905081810360008301526134a981612f66565b9050919050565b600060208201905081810360008301526134c981612f89565b9050919050565b600060208201905081810360008301526134e981612fac565b9050919050565b6000602082019050818103600083015261350981612fcf565b9050919050565b6000602082019050818103600083015261352981612ff2565b9050919050565b6000602082019050818103600083015261354981613015565b9050919050565b6000602082019050818103600083015261356981613038565b9050919050565b600060208201905081810360008301526135898161305b565b9050919050565b600060208201905081810360008301526135a98161307e565b9050919050565b600060208201905081810360008301526135c9816130a1565b9050919050565b600060208201905081810360008301526135e9816130c4565b9050919050565b60006020820190508181036000830152613609816130e7565b9050919050565b600060208201905081810360008301526136298161310a565b9050919050565b600060208201905081810360008301526136498161312d565b9050919050565b6000602082019050818103600083015261366981613150565b9050919050565b6000602082019050818103600083015261368981613173565b9050919050565b600060208201905081810360008301526136a981613196565b9050919050565b60006020820190506136c560008301846131b9565b92915050565b60006020820190506136e060008301846131d7565b92915050565b60006136f0613701565b90506136fc82826139ae565b919050565b6000604051905090565b600067ffffffffffffffff82111561372657613725613ae6565b5b61372f82613b15565b9050602081019050919050565b6000819050602082019050919050565b600081519050919050565b600081519050919050565b600081519050919050565b6000602082019050919050565b600082825260208201905092915050565b600082825260208201905092915050565b600082825260208201905092915050565b600081905092915050565b60006137c3826138f5565b91506137ce836138f5565b92508261ffff038211156137e5576137e4613a59565b5b828201905092915050565b60006137fb82613923565b915061380683613923565b9250827fffffffffffffffffffffffffffffffffffffffffffffffffffffffffffffffff0382111561383b5761383a613a59565b5b828201905092915050565b600061385182613923565b915061385c83613923565b92508261386c5761386b613a88565b5b828204905092915050565b600061388282613923565b915061388d83613923565b9250828210156138a05761389f613a59565b5b828203905092915050565b60006138b682613903565b9050919050565b60008115159050919050565b60007fffffffff0000000000000000000000000000000000000000000000000000000082169050919050565b600061ffff82169050919050565b600073ffffffffffffffffffffffffffffffffffffffff82169050919050565b6000819050919050565b600060ff82169050919050565b82818337600083830152505050565b60005b8381101561396757808201518184015260208101905061394c565b83811115613976576000848401525b50505050565b6000600282049050600182168061399457607f821691505b602082108114156139a8576139a7613ab7565b5b50919050565b6139b782613b15565b810181811067ffffffffffffffff821117156139d6576139d5613ae6565b5b80604052505050565b60006139ea82613923565b91507fffffffffffffffffffffffffffffffffffffffffffffffffffffffffffffffff821415613a1d57613a1c613a59565b5b600182019050919050565b6000613a3382613923565b9150613a3e83613923565b925082613a4e57613a4d613a88565b5b828206905092915050565b7f4e487b7100000000000000000000000000000000000000000000000000000000600052601160045260246000fd5b7f4e487b7100000000000000000000000000000000000000000000000000000000600052601260045260246000fd5b7f4e487b7100000000000000000000000000000000000000000000000000000000600052602260045260246000fd5b7f4e487b7100000000000000000000000000000000000000000000000000000000600052604160045260246000fd5b6000601f19601f8301169050919050565b7f5175616472616e74206f6e65206d7573742062652061637469766520746f206d60008201527f696e740000000000000000000000000000000000000000000000000000000000602082015250565b7f5175616472616e74206f6e65206861732072756e206f7574206f66206c616e6460008201527f7320746f206d696e740000000000000000000000000000000000000000000000602082015250565b7f4552433732313a207472616e7366657220746f206e6f6e20455243373231526560008201527f63656976657220696d706c656d656e7465720000000000000000000000000000602082015250565b7f4f776e61626c653a206e6577206f776e657220697320746865207a65726f206160008201527f6464726573730000000000000000000000000000000000000000000000000000602082015250565b7f4552433732313a20746f6b656e20616c7265616479206d696e74656400000000600082015250565b7f5175616472616e7420666f7572206861732072756e206f7574206f66206c616e60008201527f647320746f206d696e7400000000000000000000000000000000000000000000602082015250565b7f4552433732313a207472616e7366657220746f20746865207a65726f2061646460008201527f7265737300000000000000000000000000000000000000000000000000000000602082015250565b7f4552433732313a20617070726f766520746f2063616c6c657200000000000000600082015250565b7f50757263686173652077696c6c20657863656564206d617820617661696c616260008201527f6c6520706965636573206f66206c616e64000000000000000000000000000000602082015250565b7f53616c65206d7573742062652061637469766520746f206d696e740000000000600082015250565b7f4552433732313a206f70657261746f7220717565727920666f72206e6f6e657860008201527f697374656e7420746f6b656e0000000000000000000000000000000000000000602082015250565b7f5175616472616e74207468726565206d7573742062652061637469766520746f60008201527f206d696e74000000000000000000000000000000000000000000000000000000602082015250565b7f4552433732313a20617070726f76652063616c6c6572206973206e6f74206f7760008201527f6e6572206e6f7220617070726f76656420666f7220616c6c0000000000000000602082015250565b7f4552433732313a2062616c616e636520717565727920666f7220746865207a6560008201527f726f206164647265737300000000000000000000000000000000000000000000602082015250565b7f4552433732313a206f776e657220717565727920666f72206e6f6e657869737460008201527f656e7420746f6b656e0000000000000000000000000000000000000000000000602082015250565b7f45524337323155524953746f726167653a2055524920736574206f66206e6f6e60008201527f6578697374656e7420746f6b656e000000000000000000000000000000000000602082015250565b7f5175616472616e742076616c756520697320696e76616c696400000000000000600082015250565b7f5175616472616e7420666f7572206d7573742062652061637469766520746f2060008201527f6d696e7400000000000000000000000000000000000000000000000000000000602082015250565b7f4552433732313a206d696e7420746f20746865207a65726f2061646472657373600082015250565b7f45524337323155524953746f726167653a2055524920717565727920666f722060008201527f6e6f6e6578697374656e7420746f6b656e000000000000000000000000000000602082015250565b7f4552433732313a20617070726f76656420717565727920666f72206e6f6e657860008201527f697374656e7420746f6b656e0000000000000000000000000000000000000000602082015250565b7f4f776e61626c653a2063616c6c6572206973206e6f7420746865206f776e6572600082015250565b7f56616c756520646f6573206e6f742076616c6964000000000000000000000000600082015250565b7f4552433732313a207472616e73666572206f6620746f6b656e2074686174206960008201527f73206e6f74206f776e0000000000000000000000000000000000000000000000602082015250565b7f4552433732314d657461646174613a2055524920717565727920666f72206e6f60008201527f6e6578697374656e7420746f6b656e0000000000000000000000000000000000602082015250565b7f4552433732313a20617070726f76616c20746f2063757272656e74206f776e6560008201527f7200000000000000000000000000000000000000000000000000000000000000602082015250565b7f4552433732313a207472616e736665722063616c6c6572206973206e6f74206f60008201527f776e6572206e6f7220617070726f766564000000000000000000000000000000602082015250565b7f5175616472616e742074776f206861732072756e206f7574206f66206c616e6460008201527f7320746f206d696e740000000000000000000000000000000000000000000000602082015250565b7f5175616472616e742074776f206d7573742062652061637469766520746f206d60008201527f696e740000000000000000000000000000000000000000000000000000000000602082015250565b7f496e76616c696420706172616d657465722076616c7565210000000000000000600082015250565b7f5175616472616e74207468726565206861732072756e206f7574206f66206c6160008201527f6e647320746f206d696e74000000000000000000000000000000000000000000602082015250565b614390816138ab565b811461439b57600080fd5b50565b6143a7816138bd565b81146143b257600080fd5b50565b6143be816138c9565b81146143c957600080fd5b50565b6143d581613923565b81146143e057600080fd5b50565b6143ec8161392d565b81146143f757600080fd5b5056fe68747470733a2f2f676174657761792e70696e6174612e636c6f75642f697066732f516d657235364e746a656f764e79667371484268586256715031736a64776e356531616d50466e524164724c32612fa264697066735822122024e83bd87a08d4a6106aa6fd5d01ce658d7cd7ad089c1f978a7571aad2e38ad664736f6c63430008040033",
  "linkReferences": {},
  "deployedLinkReferences": {}
}