{
  "_format": "hh-sol-artifact-1",
  "contractName": "Plot",
  "sourceName": "contracts/Plot.sol",
  "abi": [
    {
      "inputs": [],
      "stateMutability": "nonpayable",
      "type": "constructor"
    },
    {
      "anonymous": false,
      "inputs": [
        {
          "indexed": true,
          "internalType": "address",
          "name": "owner",
          "type": "address"
        },
        {
          "indexed": true,
          "internalType": "address",
          "name": "approved",
          "type": "address"
        },
        {
          "indexed": true,
          "internalType": "uint256",
          "name": "tokenId",
          "type": "uint256"
        }
      ],
      "name": "Approval",
      "type": "event"
    },
    {
      "anonymous": false,
      "inputs": [
        {
          "indexed": true,
          "internalType": "address",
          "name": "owner",
          "type": "address"
        },
        {
          "indexed": true,
          "internalType": "address",
          "name": "operator",
          "type": "address"
        },
        {
          "indexed": false,
          "internalType": "bool",
          "name": "approved",
          "type": "bool"
        }
      ],
      "name": "ApprovalForAll",
      "type": "event"
    },
    {
      "anonymous": false,
      "inputs": [
        {
          "indexed": true,
          "internalType": "address",
          "name": "previousOwner",
          "type": "address"
        },
        {
          "indexed": true,
          "internalType": "address",
          "name": "newOwner",
          "type": "address"
        }
      ],
      "name": "OwnershipTransferred",
      "type": "event"
    },
    {
      "anonymous": false,
      "inputs": [
        {
          "indexed": true,
          "internalType": "address",
          "name": "from",
          "type": "address"
        },
        {
          "indexed": true,
          "internalType": "address",
          "name": "to",
          "type": "address"
        },
        {
          "indexed": true,
          "internalType": "uint256",
          "name": "tokenId",
          "type": "uint256"
        }
      ],
      "name": "Transfer",
      "type": "event"
    },
    {
      "inputs": [
        {
          "internalType": "address",
          "name": "to",
          "type": "address"
        },
        {
          "internalType": "uint256",
          "name": "tokenId",
          "type": "uint256"
        }
      ],
      "name": "approve",
      "outputs": [],
      "stateMutability": "nonpayable",
      "type": "function"
    },
    {
      "inputs": [
        {
          "internalType": "address",
          "name": "owner",
          "type": "address"
        }
      ],
      "name": "balanceOf",
      "outputs": [
        {
          "internalType": "uint256",
          "name": "",
          "type": "uint256"
        }
      ],
      "stateMutability": "view",
      "type": "function"
    },
    {
      "inputs": [
        {
          "internalType": "uint8",
          "name": "quadrant",
          "type": "uint8"
        }
      ],
      "name": "buyLand",
      "outputs": [
        {
          "internalType": "uint256",
          "name": "",
          "type": "uint256"
        }
      ],
      "stateMutability": "payable",
      "type": "function"
    },
    {
      "inputs": [
        {
          "internalType": "uint8",
          "name": "quadrant",
          "type": "uint8"
        }
      ],
      "name": "flipQuadrantState",
      "outputs": [],
      "stateMutability": "nonpayable",
      "type": "function"
    },
    {
      "inputs": [],
      "name": "flipSaleState",
      "outputs": [],
      "stateMutability": "nonpayable",
      "type": "function"
    },
    {
      "inputs": [
        {
          "internalType": "uint256",
          "name": "tokenId",
          "type": "uint256"
        }
      ],
      "name": "getApproved",
      "outputs": [
        {
          "internalType": "address",
          "name": "",
          "type": "address"
        }
      ],
      "stateMutability": "view",
      "type": "function"
    },
    {
      "inputs": [
        {
          "internalType": "address",
          "name": "owner",
          "type": "address"
        }
      ],
      "name": "getLandsByOwner",
      "outputs": [
        {
          "internalType": "uint256[]",
          "name": "",
          "type": "uint256[]"
        }
      ],
      "stateMutability": "view",
      "type": "function"
    },
    {
      "inputs": [
        {
          "internalType": "address",
          "name": "owner",
          "type": "address"
        },
        {
          "internalType": "address",
          "name": "operator",
          "type": "address"
        }
      ],
      "name": "isApprovedForAll",
      "outputs": [
        {
          "internalType": "bool",
          "name": "",
          "type": "bool"
        }
      ],
      "stateMutability": "view",
      "type": "function"
    },
    {
      "inputs": [],
      "name": "name",
      "outputs": [
        {
          "internalType": "string",
          "name": "",
          "type": "string"
        }
      ],
      "stateMutability": "view",
      "type": "function"
    },
    {
      "inputs": [],
      "name": "owner",
      "outputs": [
        {
          "internalType": "address",
          "name": "",
          "type": "address"
        }
      ],
      "stateMutability": "view",
      "type": "function"
    },
    {
      "inputs": [
        {
          "internalType": "uint256",
          "name": "tokenId",
          "type": "uint256"
        }
      ],
      "name": "ownerOf",
      "outputs": [
        {
          "internalType": "address",
          "name": "",
          "type": "address"
        }
      ],
      "stateMutability": "view",
      "type": "function"
    },
    {
      "inputs": [],
      "name": "quadrantFourIsActive",
      "outputs": [
        {
          "internalType": "bool",
          "name": "",
          "type": "bool"
        }
      ],
      "stateMutability": "view",
      "type": "function"
    },
    {
      "inputs": [],
      "name": "quadrantOneIsActive",
      "outputs": [
        {
          "internalType": "bool",
          "name": "",
          "type": "bool"
        }
      ],
      "stateMutability": "view",
      "type": "function"
    },
    {
      "inputs": [],
      "name": "quadrantThreeIsActive",
      "outputs": [
        {
          "internalType": "bool",
          "name": "",
          "type": "bool"
        }
      ],
      "stateMutability": "view",
      "type": "function"
    },
    {
      "inputs": [],
      "name": "quadrantTwoIsActive",
      "outputs": [
        {
          "internalType": "bool",
          "name": "",
          "type": "bool"
        }
      ],
      "stateMutability": "view",
      "type": "function"
    },
    {
      "inputs": [],
      "name": "renounceOwnership",
      "outputs": [],
      "stateMutability": "nonpayable",
      "type": "function"
    },
    {
      "inputs": [
        {
          "internalType": "address",
          "name": "from",
          "type": "address"
        },
        {
          "internalType": "address",
          "name": "to",
          "type": "address"
        },
        {
          "internalType": "uint256",
          "name": "tokenId",
          "type": "uint256"
        }
      ],
      "name": "safeTransferFrom",
      "outputs": [],
      "stateMutability": "nonpayable",
      "type": "function"
    },
    {
      "inputs": [
        {
          "internalType": "address",
          "name": "from",
          "type": "address"
        },
        {
          "internalType": "address",
          "name": "to",
          "type": "address"
        },
        {
          "internalType": "uint256",
          "name": "tokenId",
          "type": "uint256"
        },
        {
          "internalType": "bytes",
          "name": "_data",
          "type": "bytes"
        }
      ],
      "name": "safeTransferFrom",
      "outputs": [],
      "stateMutability": "nonpayable",
      "type": "function"
    },
    {
      "inputs": [],
      "name": "saleIsActive",
      "outputs": [
        {
          "internalType": "bool",
          "name": "",
          "type": "bool"
        }
      ],
      "stateMutability": "view",
      "type": "function"
    },
    {
      "inputs": [
        {
          "internalType": "address",
          "name": "operator",
          "type": "address"
        },
        {
          "internalType": "bool",
          "name": "approved",
          "type": "bool"
        }
      ],
      "name": "setApprovalForAll",
      "outputs": [],
      "stateMutability": "nonpayable",
      "type": "function"
    },
    {
      "inputs": [
        {
          "internalType": "uint256",
          "name": "price",
          "type": "uint256"
        }
      ],
      "name": "setLandPrice",
      "outputs": [],
      "stateMutability": "nonpayable",
      "type": "function"
    },
    {
      "inputs": [
        {
          "internalType": "bytes4",
          "name": "interfaceId",
          "type": "bytes4"
        }
      ],
      "name": "supportsInterface",
      "outputs": [
        {
          "internalType": "bool",
          "name": "",
          "type": "bool"
        }
      ],
      "stateMutability": "view",
      "type": "function"
    },
    {
      "inputs": [],
      "name": "symbol",
      "outputs": [
        {
          "internalType": "string",
          "name": "",
          "type": "string"
        }
      ],
      "stateMutability": "view",
      "type": "function"
    },
    {
      "inputs": [
        {
          "internalType": "uint256",
          "name": "tokenId",
          "type": "uint256"
        }
      ],
      "name": "tokenURI",
      "outputs": [
        {
          "internalType": "string",
          "name": "",
          "type": "string"
        }
      ],
      "stateMutability": "view",
      "type": "function"
    },
    {
      "inputs": [],
      "name": "totalSupply",
      "outputs": [
        {
          "internalType": "uint16",
          "name": "",
          "type": "uint16"
        }
      ],
      "stateMutability": "pure",
      "type": "function"
    },
    {
      "inputs": [
        {
          "internalType": "address",
          "name": "from",
          "type": "address"
        },
        {
          "internalType": "address",
          "name": "to",
          "type": "address"
        },
        {
          "internalType": "uint256",
          "name": "tokenId",
          "type": "uint256"
        }
      ],
      "name": "transferFrom",
      "outputs": [],
      "stateMutability": "nonpayable",
      "type": "function"
    },
    {
      "inputs": [
        {
          "internalType": "address",
          "name": "newOwner",
          "type": "address"
        }
      ],
      "name": "transferOwnership",
      "outputs": [],
      "stateMutability": "nonpayable",
      "type": "function"
    }
  ],
  "bytecode": "0x608060405260006009556000600a60006101000a81548160ff0219169083151502179055506001600a60016101000a81548161ffff021916908361ffff160217905550612f60600a60036101000a81548161ffff021916908361ffff160217905550615e7c600a60056101000a81548161ffff021916908361ffff160217905550618d26600a60076101000a81548161ffff021916908361ffff1602179055506001600a60096101000a81548160ff0219169083151502179055506000600a806101000a81548160ff0219169083151502179055506000600a600b6101000a81548160ff0219169083151502179055506000600a600c6101000a81548160ff0219169083151502179055503480156200011757600080fd5b506040518060400160405280600481526020017f506c6f74000000000000000000000000000000000000000000000000000000008152506040518060400160405280600181526020017f500000000000000000000000000000000000000000000000000000000000000081525081600090805190602001906200019c929190620002ac565b508060019080519060200190620001b5929190620002ac565b505050620001d8620001cc620001de60201b60201c565b620001e660201b60201c565b620003c1565b600033905090565b6000600760009054906101000a900473ffffffffffffffffffffffffffffffffffffffff16905081600760006101000a81548173ffffffffffffffffffffffffffffffffffffffff021916908373ffffffffffffffffffffffffffffffffffffffff1602179055508173ffffffffffffffffffffffffffffffffffffffff168173ffffffffffffffffffffffffffffffffffffffff167f8be0079c531659141344cd1fd0a4f28419497f9722a3daafe3b4186f6b6457e060405160405180910390a35050565b828054620002ba906200035c565b90600052602060002090601f016020900481019282620002de57600085556200032a565b82601f10620002f957805160ff19168380011785556200032a565b828001600101855582156200032a579182015b82811115620003295782518255916020019190600101906200030c565b5b5090506200033991906200033d565b5090565b5b80821115620003585760008160009055506001016200033e565b5090565b600060028204905060018216806200037557607f821691505b602082108114156200038c576200038b62000392565b5b50919050565b7f4e487b7100000000000000000000000000000000000000000000000000000000600052602260045260246000fd5b6144c480620003d16000396000f3fe60806040526004361061019c5760003560e01c80635a2cc5fb116100ec578063b88d4fde1161008a578063cd643c9711610064578063cd643c97146105b9578063e985e9c5146105e4578063eb8d244414610621578063f2fde38b1461064c5761019c565b8063b88d4fde1461052a578063bd91cc7514610553578063c87b56dd1461057c5761019c565b8063715018a6116100c6578063715018a6146104945780638da5cb5b146104ab57806395d89b41146104d6578063a22cb465146105015761019c565b80635a2cc5fb146103ef5780636352211e1461041a57806370a08231146104575761019c565b806323b872dd1161015957806342842e0e1161013357806342842e0e1461032e578063455b9d23146103575780634763c8ce146103945780634e29c2e2146103bf5761019c565b806323b872dd146102c35780632d2f9652146102ec57806334918dfd146103175761019c565b806301ffc9a7146101a1578063022565f1146101de57806306fdde0314610207578063081812fc14610232578063095ea7b31461026f57806318160ddd14610298575b600080fd5b3480156101ad57600080fd5b506101c860048036038101906101c39190612be4565b610675565b6040516101d591906132d6565b60405180910390f35b3480156101ea57600080fd5b5061020560048036038101906102009190612c36565b610757565b005b34801561021357600080fd5b5061021c6107dd565b60405161022991906132f1565b60405180910390f35b34801561023e57600080fd5b5061025960048036038101906102549190612c36565b61086f565b604051610266919061324d565b60405180910390f35b34801561027b57600080fd5b5061029660048036038101906102919190612ba8565b6108f4565b005b3480156102a457600080fd5b506102ad610a0c565b6040516102ba91906136f3565b60405180910390f35b3480156102cf57600080fd5b506102ea60048036038101906102e59190612aa2565b610a16565b005b3480156102f857600080fd5b50610301610a76565b60405161030e91906132d6565b60405180910390f35b34801561032357600080fd5b5061032c610a89565b005b34801561033a57600080fd5b5061035560048036038101906103509190612aa2565b610b31565b005b34801561036357600080fd5b5061037e60048036038101906103799190612a3d565b610b51565b60405161038b91906132b4565b60405180910390f35b3480156103a057600080fd5b506103a9610c96565b6040516103b691906132d6565b60405180910390f35b6103d960048036038101906103d49190612c5f565b610ca9565b6040516103e6919061370e565b60405180910390f35b3480156103fb57600080fd5b5061040461125b565b60405161041191906132d6565b60405180910390f35b34801561042657600080fd5b50610441600480360381019061043c9190612c36565b61126c565b60405161044e919061324d565b60405180910390f35b34801561046357600080fd5b5061047e60048036038101906104799190612a3d565b61131e565b60405161048b919061370e565b60405180910390f35b3480156104a057600080fd5b506104a96113d6565b005b3480156104b757600080fd5b506104c061145e565b6040516104cd919061324d565b60405180910390f35b3480156104e257600080fd5b506104eb611488565b6040516104f891906132f1565b60405180910390f35b34801561050d57600080fd5b5061052860048036038101906105239190612b6c565b61151a565b005b34801561053657600080fd5b50610551600480360381019061054c9190612af1565b611530565b005b34801561055f57600080fd5b5061057a60048036038101906105759190612c5f565b611592565b005b34801561058857600080fd5b506105a3600480360381019061059e9190612c36565b61174e565b6040516105b091906132f1565b60405180910390f35b3480156105c557600080fd5b506105ce6118a0565b6040516105db91906132d6565b60405180910390f35b3480156105f057600080fd5b5061060b60048036038101906106069190612a66565b6118b3565b60405161061891906132d6565b60405180910390f35b34801561062d57600080fd5b50610636611947565b60405161064391906132d6565b60405180910390f35b34801561065857600080fd5b50610673600480360381019061066e9190612a3d565b61195a565b005b60007f80ac58cd000000000000000000000000000000000000000000000000000000007bffffffffffffffffffffffffffffffffffffffffffffffffffffffff1916827bffffffffffffffffffffffffffffffffffffffffffffffffffffffff1916148061074057507f5b5e139f000000000000000000000000000000000000000000000000000000007bffffffffffffffffffffffffffffffffffffffffffffffffffffffff1916827bffffffffffffffffffffffffffffffffffffffffffffffffffffffff1916145b80610750575061074f82611a52565b5b9050919050565b61075f611abc565b73ffffffffffffffffffffffffffffffffffffffff1661077d61145e565b73ffffffffffffffffffffffffffffffffffffffff16146107d3576040517f08c379a00000000000000000000000000000000000000000000000000000000081526004016107ca906135b3565b60405180910390fd5b8060098190555050565b6060600080546107ec906139bf565b80601f0160208091040260200160405190810160405280929190818152602001828054610818906139bf565b80156108655780601f1061083a57610100808354040283529160200191610865565b820191906000526020600020905b81548152906001019060200180831161084857829003601f168201915b5050505050905090565b600061087a82611ac4565b6108b9576040517f08c379a00000000000000000000000000000000000000000000000000000000081526004016108b090613593565b60405180910390fd5b6004600083815260200190815260200160002060009054906101000a900473ffffffffffffffffffffffffffffffffffffffff169050919050565b60006108ff8261126c565b90508073ffffffffffffffffffffffffffffffffffffffff168373ffffffffffffffffffffffffffffffffffffffff161415610970576040517f08c379a000000000000000000000000000000000000000000000000000000000815260040161096790613633565b60405180910390fd5b8073ffffffffffffffffffffffffffffffffffffffff1661098f611abc565b73ffffffffffffffffffffffffffffffffffffffff1614806109be57506109bd816109b8611abc565b6118b3565b5b6109fd576040517f08c379a00000000000000000000000000000000000000000000000000000000081526004016109f490613493565b60405180910390fd5b610a078383611b30565b505050565b600061bb8d905090565b610a27610a21611abc565b82611be9565b610a66576040517f08c379a0000000000000000000000000000000000000000000000000000000008152600401610a5d90613653565b60405180910390fd5b610a71838383611cc7565b505050565b600a600b9054906101000a900460ff1681565b610a91611abc565b73ffffffffffffffffffffffffffffffffffffffff16610aaf61145e565b73ffffffffffffffffffffffffffffffffffffffff1614610b05576040517f08c379a0000000000000000000000000000000000000000000000000000000008152600401610afc906135b3565b60405180910390fd5b600a60009054906101000a900460ff1615600a60006101000a81548160ff021916908315150217905550565b610b4c83838360405180602001604052806000815250611530565b505050565b60606000610b5e8361131e565b67ffffffffffffffff811115610b9d577f4e487b7100000000000000000000000000000000000000000000000000000000600052604160045260246000fd5b604051908082528060200260200182016040528015610bcb5781602001602082028036833780820191505090505b509050600080600190505b610be06008611f23565b811015610c8b578473ffffffffffffffffffffffffffffffffffffffff16610c078261126c565b73ffffffffffffffffffffffffffffffffffffffff161415610c785780838381518110610c5d577f4e487b7100000000000000000000000000000000000000000000000000000000600052603260045260246000fd5b6020026020010181815250508180610c7490613a22565b9250505b8080610c8390613a22565b915050610bd6565b508192505050919050565b600a600c9054906101000a900460ff1681565b6000600a60009054906101000a900460ff16610cfa576040517f08c379a0000000000000000000000000000000000000000000000000000000008152600401610cf190613433565b60405180910390fd5b600954341015610d3f576040517f08c379a0000000000000000000000000000000000000000000000000000000008152600401610d36906135d3565b60405180910390fd5b60008260ff16118015610d55575060058260ff16105b610d94576040517f08c379a0000000000000000000000000000000000000000000000000000000008152600401610d8b90613513565b60405180910390fd5b61bb8d61ffff166001610da76008611f23565b610db19190613833565b1115610df2576040517f08c379a0000000000000000000000000000000000000000000000000000000008152600401610de990613413565b60405180910390fd5b600060018360ff161415610efe57600a60099054906101000a900460ff16610e4f576040517f08c379a0000000000000000000000000000000000000000000000000000000008152600401610e4690613313565b60405180910390fd5b612f5f61ffff16600a60019054906101000a900461ffff1661ffff161115610eac576040517f08c379a0000000000000000000000000000000000000000000000000000000008152600401610ea390613333565b60405180910390fd5b600a60019054906101000a900461ffff1690506001600a60018282829054906101000a900461ffff16610edf91906137fb565b92506101000a81548161ffff021916908361ffff160217905550611219565b60028360ff16141561100657600a8054906101000a900460ff16610f57576040517f08c379a0000000000000000000000000000000000000000000000000000000008152600401610f4e90613693565b60405180910390fd5b615e7b61ffff16600a60039054906101000a900461ffff1661ffff161115610fb4576040517f08c379a0000000000000000000000000000000000000000000000000000000008152600401610fab90613673565b60405180910390fd5b600a60039054906101000a900461ffff1690506001600a60038282829054906101000a900461ffff16610fe791906137fb565b92506101000a81548161ffff021916908361ffff160217905550611218565b60038360ff16141561111057600a600b9054906101000a900460ff16611061576040517f08c379a000000000000000000000000000000000000000000000000000000000815260040161105890613473565b60405180910390fd5b618d2561ffff16600a60059054906101000a900461ffff1661ffff1611156110be576040517f08c379a00000000000000000000000000000000000000000000000000000000081526004016110b5906136d3565b60405180910390fd5b600a60059054906101000a900461ffff1690506001600a60058282829054906101000a900461ffff166110f191906137fb565b92506101000a81548161ffff021916908361ffff160217905550611217565b60048360ff16141561121657600a600c9054906101000a900460ff1661116b576040517f08c379a000000000000000000000000000000000000000000000000000000000815260040161116290613533565b60405180910390fd5b61bb8d61ffff16600a60079054906101000a900461ffff1661ffff1611156111c8576040517f08c379a00000000000000000000000000000000000000000000000000000000081526004016111bf906133b3565b60405180910390fd5b600a60079054906101000a900461ffff1690506001600a60078282829054906101000a900461ffff166111fb91906137fb565b92506101000a81548161ffff021916908361ffff1602179055505b5b5b5b6112236008611f31565b600061122f6008611f23565b905061123b3382611f47565b6112518161124c8461ffff1661174e565b611f65565b8092505050919050565b600a8054906101000a900460ff1681565b6000806002600084815260200190815260200160002060009054906101000a900473ffffffffffffffffffffffffffffffffffffffff169050600073ffffffffffffffffffffffffffffffffffffffff168173ffffffffffffffffffffffffffffffffffffffff161415611315576040517f08c379a000000000000000000000000000000000000000000000000000000000815260040161130c906134d3565b60405180910390fd5b80915050919050565b60008073ffffffffffffffffffffffffffffffffffffffff168273ffffffffffffffffffffffffffffffffffffffff16141561138f576040517f08c379a0000000000000000000000000000000000000000000000000000000008152600401611386906134b3565b60405180910390fd5b600360008373ffffffffffffffffffffffffffffffffffffffff1673ffffffffffffffffffffffffffffffffffffffff168152602001908152602001600020549050919050565b6113de611abc565b73ffffffffffffffffffffffffffffffffffffffff166113fc61145e565b73ffffffffffffffffffffffffffffffffffffffff1614611452576040517f08c379a0000000000000000000000000000000000000000000000000000000008152600401611449906135b3565b60405180910390fd5b61145c6000611fd9565b565b6000600760009054906101000a900473ffffffffffffffffffffffffffffffffffffffff16905090565b606060018054611497906139bf565b80601f01602080910402602001604051908101604052809291908181526020018280546114c3906139bf565b80156115105780601f106114e557610100808354040283529160200191611510565b820191906000526020600020905b8154815290600101906020018083116114f357829003601f168201915b5050505050905090565b61152c611525611abc565b838361209f565b5050565b61154161153b611abc565b83611be9565b611580576040517f08c379a000000000000000000000000000000000000000000000000000000000815260040161157790613653565b60405180910390fd5b61158c8484848461220c565b50505050565b61159a611abc565b73ffffffffffffffffffffffffffffffffffffffff166115b861145e565b73ffffffffffffffffffffffffffffffffffffffff161461160e576040517f08c379a0000000000000000000000000000000000000000000000000000000008152600401611605906135b3565b60405180910390fd5b60008160ff16118015611624575060058160ff16105b611663576040517f08c379a000000000000000000000000000000000000000000000000000000000815260040161165a906136b3565b60405180910390fd5b60018160ff16141561169e57600a60099054906101000a900460ff1615600a60096101000a81548160ff02191690831515021790555061174b565b60028160ff1614156116d657600a8054906101000a900460ff1615600a806101000a81548160ff02191690831515021790555061174a565b60038160ff16141561171157600a600b9054906101000a900460ff1615600a600b6101000a81548160ff021916908315150217905550611749565b60048160ff16141561174857600a600c9054906101000a900460ff1615600a600c6101000a81548160ff0219169083151502179055505b5b5b5b50565b606061175982611ac4565b611798576040517f08c379a000000000000000000000000000000000000000000000000000000000815260040161178f90613573565b60405180910390fd5b60006006600084815260200190815260200160002080546117b8906139bf565b80601f01602080910402602001604051908101604052809291908181526020018280546117e4906139bf565b80156118315780601f1061180657610100808354040283529160200191611831565b820191906000526020600020905b81548152906001019060200180831161181457829003601f168201915b505050505090506000611842612268565b905060008151141561185857819250505061189b565b60008251111561188d578082604051602001611875929190613229565b6040516020818303038152906040529250505061189b565b61189684612288565b925050505b919050565b600a60099054906101000a900460ff1681565b6000600560008473ffffffffffffffffffffffffffffffffffffffff1673ffffffffffffffffffffffffffffffffffffffff16815260200190815260200160002060008373ffffffffffffffffffffffffffffffffffffffff1673ffffffffffffffffffffffffffffffffffffffff16815260200190815260200160002060009054906101000a900460ff16905092915050565b600a60009054906101000a900460ff1681565b611962611abc565b73ffffffffffffffffffffffffffffffffffffffff1661198061145e565b73ffffffffffffffffffffffffffffffffffffffff16146119d6576040517f08c379a00000000000000000000000000000000000000000000000000000000081526004016119cd906135b3565b60405180910390fd5b600073ffffffffffffffffffffffffffffffffffffffff168173ffffffffffffffffffffffffffffffffffffffff161415611a46576040517f08c379a0000000000000000000000000000000000000000000000000000000008152600401611a3d90613373565b60405180910390fd5b611a4f81611fd9565b50565b60007f01ffc9a7000000000000000000000000000000000000000000000000000000007bffffffffffffffffffffffffffffffffffffffffffffffffffffffff1916827bffffffffffffffffffffffffffffffffffffffffffffffffffffffff1916149050919050565b600033905090565b60008073ffffffffffffffffffffffffffffffffffffffff166002600084815260200190815260200160002060009054906101000a900473ffffffffffffffffffffffffffffffffffffffff1673ffffffffffffffffffffffffffffffffffffffff1614159050919050565b816004600083815260200190815260200160002060006101000a81548173ffffffffffffffffffffffffffffffffffffffff021916908373ffffffffffffffffffffffffffffffffffffffff160217905550808273ffffffffffffffffffffffffffffffffffffffff16611ba38361126c565b73ffffffffffffffffffffffffffffffffffffffff167f8c5be1e5ebec7d5bd14f71427d1e84f3dd0314c0f7b2291e5b200ac8c7c3b92560405160405180910390a45050565b6000611bf482611ac4565b611c33576040517f08c379a0000000000000000000000000000000000000000000000000000000008152600401611c2a90613453565b60405180910390fd5b6000611c3e8361126c565b90508073ffffffffffffffffffffffffffffffffffffffff168473ffffffffffffffffffffffffffffffffffffffff161480611cad57508373ffffffffffffffffffffffffffffffffffffffff16611c958461086f565b73ffffffffffffffffffffffffffffffffffffffff16145b80611cbe5750611cbd81856118b3565b5b91505092915050565b8273ffffffffffffffffffffffffffffffffffffffff16611ce78261126c565b73ffffffffffffffffffffffffffffffffffffffff1614611d3d576040517f08c379a0000000000000000000000000000000000000000000000000000000008152600401611d34906135f3565b60405180910390fd5b600073ffffffffffffffffffffffffffffffffffffffff168273ffffffffffffffffffffffffffffffffffffffff161415611dad576040517f08c379a0000000000000000000000000000000000000000000000000000000008152600401611da4906133d3565b60405180910390fd5b611db883838361232f565b611dc3600082611b30565b6001600360008573ffffffffffffffffffffffffffffffffffffffff1673ffffffffffffffffffffffffffffffffffffffff1681526020019081526020016000206000828254611e1391906138ba565b925050819055506001600360008473ffffffffffffffffffffffffffffffffffffffff1673ffffffffffffffffffffffffffffffffffffffff1681526020019081526020016000206000828254611e6a9190613833565b92505081905550816002600083815260200190815260200160002060006101000a81548173ffffffffffffffffffffffffffffffffffffffff021916908373ffffffffffffffffffffffffffffffffffffffff160217905550808273ffffffffffffffffffffffffffffffffffffffff168473ffffffffffffffffffffffffffffffffffffffff167fddf252ad1be2c89b69c2b068fc378daa952ba7f163c4a11628f55a4df523b3ef60405160405180910390a4505050565b600081600001549050919050565b6001816000016000828254019250508190555050565b611f61828260405180602001604052806000815250612334565b5050565b611f6e82611ac4565b611fad576040517f08c379a0000000000000000000000000000000000000000000000000000000008152600401611fa4906134f3565b60405180910390fd5b80600660008481526020019081526020016000209080519060200190611fd49291906128b4565b505050565b6000600760009054906101000a900473ffffffffffffffffffffffffffffffffffffffff16905081600760006101000a81548173ffffffffffffffffffffffffffffffffffffffff021916908373ffffffffffffffffffffffffffffffffffffffff1602179055508173ffffffffffffffffffffffffffffffffffffffff168173ffffffffffffffffffffffffffffffffffffffff167f8be0079c531659141344cd1fd0a4f28419497f9722a3daafe3b4186f6b6457e060405160405180910390a35050565b8173ffffffffffffffffffffffffffffffffffffffff168373ffffffffffffffffffffffffffffffffffffffff16141561210e576040517f08c379a0000000000000000000000000000000000000000000000000000000008152600401612105906133f3565b60405180910390fd5b80600560008573ffffffffffffffffffffffffffffffffffffffff1673ffffffffffffffffffffffffffffffffffffffff16815260200190815260200160002060008473ffffffffffffffffffffffffffffffffffffffff1673ffffffffffffffffffffffffffffffffffffffff16815260200190815260200160002060006101000a81548160ff0219169083151502179055508173ffffffffffffffffffffffffffffffffffffffff168373ffffffffffffffffffffffffffffffffffffffff167f17307eab39ab6107e8899845ad3d59bd9653f200f220920489ca2b5937696c31836040516121ff91906132d6565b60405180910390a3505050565b612217848484611cc7565b6122238484848461238f565b612262576040517f08c379a000000000000000000000000000000000000000000000000000000000815260040161225990613353565b60405180910390fd5b50505050565b606060405180608001604052806051815260200161443e60519139905090565b606061229382611ac4565b6122d2576040517f08c379a00000000000000000000000000000000000000000000000000000000081526004016122c990613613565b60405180910390fd5b60006122dc612268565b905060008151116122fc5760405180602001604052806000815250612327565b8061230684612526565b604051602001612317929190613229565b6040516020818303038152906040525b915050919050565b505050565b61233e83836126d3565b61234b600084848461238f565b61238a576040517f08c379a000000000000000000000000000000000000000000000000000000000815260040161238190613353565b60405180910390fd5b505050565b60006123b08473ffffffffffffffffffffffffffffffffffffffff166128a1565b15612519578373ffffffffffffffffffffffffffffffffffffffff1663150b7a026123d9611abc565b8786866040518563ffffffff1660e01b81526004016123fb9493929190613268565b602060405180830381600087803b15801561241557600080fd5b505af192505050801561244657506040513d601f19601f820116820180604052508101906124439190612c0d565b60015b6124c9573d8060008114612476576040519150601f19603f3d011682016040523d82523d6000602084013e61247b565b606091505b506000815114156124c1576040517f08c379a00000000000000000000000000000000000000000000000000000000081526004016124b890613353565b60405180910390fd5b805181602001fd5b63150b7a0260e01b7bffffffffffffffffffffffffffffffffffffffffffffffffffffffff1916817bffffffffffffffffffffffffffffffffffffffffffffffffffffffff19161491505061251e565b600190505b949350505050565b6060600082141561256e576040518060400160405280600181526020017f300000000000000000000000000000000000000000000000000000000000000081525090506126ce565b600082905060005b600082146125a057808061258990613a22565b915050600a826125999190613889565b9150612576565b60008167ffffffffffffffff8111156125e2577f4e487b7100000000000000000000000000000000000000000000000000000000600052604160045260246000fd5b6040519080825280601f01601f1916602001820160405280156126145781602001600182028036833780820191505090505b5090505b600085146126c75760018261262d91906138ba565b9150600a8561263c9190613a6b565b60306126489190613833565b60f81b818381518110612684577f4e487b7100000000000000000000000000000000000000000000000000000000600052603260045260246000fd5b60200101907effffffffffffffffffffffffffffffffffffffffffffffffffffffffffffff1916908160001a905350600a856126c09190613889565b9450612618565b8093505050505b919050565b600073ffffffffffffffffffffffffffffffffffffffff168273ffffffffffffffffffffffffffffffffffffffff161415612743576040517f08c379a000000000000000000000000000000000000000000000000000000000815260040161273a90613553565b60405180910390fd5b61274c81611ac4565b1561278c576040517f08c379a000000000000000000000000000000000000000000000000000000000815260040161278390613393565b60405180910390fd5b6127986000838361232f565b6001600360008473ffffffffffffffffffffffffffffffffffffffff1673ffffffffffffffffffffffffffffffffffffffff16815260200190815260200160002060008282546127e89190613833565b92505081905550816002600083815260200190815260200160002060006101000a81548173ffffffffffffffffffffffffffffffffffffffff021916908373ffffffffffffffffffffffffffffffffffffffff160217905550808273ffffffffffffffffffffffffffffffffffffffff16600073ffffffffffffffffffffffffffffffffffffffff167fddf252ad1be2c89b69c2b068fc378daa952ba7f163c4a11628f55a4df523b3ef60405160405180910390a45050565b600080823b905060008111915050919050565b8280546128c0906139bf565b90600052602060002090601f0160209004810192826128e25760008555612929565b82601f106128fb57805160ff1916838001178555612929565b82800160010185558215612929579182015b8281111561292857825182559160200191906001019061290d565b5b509050612936919061293a565b5090565b5b8082111561295357600081600090555060010161293b565b5090565b600061296a6129658461374e565b613729565b90508281526020810184848401111561298257600080fd5b61298d84828561397d565b509392505050565b6000813590506129a4816143ca565b92915050565b6000813590506129b9816143e1565b92915050565b6000813590506129ce816143f8565b92915050565b6000815190506129e3816143f8565b92915050565b600082601f8301126129fa57600080fd5b8135612a0a848260208601612957565b91505092915050565b600081359050612a228161440f565b92915050565b600081359050612a3781614426565b92915050565b600060208284031215612a4f57600080fd5b6000612a5d84828501612995565b91505092915050565b60008060408385031215612a7957600080fd5b6000612a8785828601612995565b9250506020612a9885828601612995565b9150509250929050565b600080600060608486031215612ab757600080fd5b6000612ac586828701612995565b9350506020612ad686828701612995565b9250506040612ae786828701612a13565b9150509250925092565b60008060008060808587031215612b0757600080fd5b6000612b1587828801612995565b9450506020612b2687828801612995565b9350506040612b3787828801612a13565b925050606085013567ffffffffffffffff811115612b5457600080fd5b612b60878288016129e9565b91505092959194509250565b60008060408385031215612b7f57600080fd5b6000612b8d85828601612995565b9250506020612b9e858286016129aa565b9150509250929050565b60008060408385031215612bbb57600080fd5b6000612bc985828601612995565b9250506020612bda85828601612a13565b9150509250929050565b600060208284031215612bf657600080fd5b6000612c04848285016129bf565b91505092915050565b600060208284031215612c1f57600080fd5b6000612c2d848285016129d4565b91505092915050565b600060208284031215612c4857600080fd5b6000612c5684828501612a13565b91505092915050565b600060208284031215612c7157600080fd5b6000612c7f84828501612a28565b91505092915050565b6000612c94838361320b565b60208301905092915050565b612ca9816138ee565b82525050565b6000612cba8261378f565b612cc481856137bd565b9350612ccf8361377f565b8060005b83811015612d00578151612ce78882612c88565b9750612cf2836137b0565b925050600181019050612cd3565b5085935050505092915050565b612d1681613900565b82525050565b6000612d278261379a565b612d3181856137ce565b9350612d4181856020860161398c565b612d4a81613b58565b840191505092915050565b6000612d60826137a5565b612d6a81856137df565b9350612d7a81856020860161398c565b612d8381613b58565b840191505092915050565b6000612d99826137a5565b612da381856137f0565b9350612db381856020860161398c565b80840191505092915050565b6000612dcc6023836137df565b9150612dd782613b69565b604082019050919050565b6000612def6029836137df565b9150612dfa82613bb8565b604082019050919050565b6000612e126032836137df565b9150612e1d82613c07565b604082019050919050565b6000612e356026836137df565b9150612e4082613c56565b604082019050919050565b6000612e58601c836137df565b9150612e6382613ca5565b602082019050919050565b6000612e7b602a836137df565b9150612e8682613cce565b604082019050919050565b6000612e9e6024836137df565b9150612ea982613d1d565b604082019050919050565b6000612ec16019836137df565b9150612ecc82613d6c565b602082019050919050565b6000612ee46031836137df565b9150612eef82613d95565b604082019050919050565b6000612f07601b836137df565b9150612f1282613de4565b602082019050919050565b6000612f2a602c836137df565b9150612f3582613e0d565b604082019050919050565b6000612f4d6025836137df565b9150612f5882613e5c565b604082019050919050565b6000612f706038836137df565b9150612f7b82613eab565b604082019050919050565b6000612f93602a836137df565b9150612f9e82613efa565b604082019050919050565b6000612fb66029836137df565b9150612fc182613f49565b604082019050919050565b6000612fd9602e836137df565b9150612fe482613f98565b604082019050919050565b6000612ffc6019836137df565b915061300782613fe7565b602082019050919050565b600061301f6024836137df565b915061302a82614010565b604082019050919050565b60006130426020836137df565b915061304d8261405f565b602082019050919050565b60006130656031836137df565b915061307082614088565b604082019050919050565b6000613088602c836137df565b9150613093826140d7565b604082019050919050565b60006130ab6020836137df565b91506130b682614126565b602082019050919050565b60006130ce6014836137df565b91506130d98261414f565b602082019050919050565b60006130f16029836137df565b91506130fc82614178565b604082019050919050565b6000613114602f836137df565b915061311f826141c7565b604082019050919050565b60006131376021836137df565b915061314282614216565b604082019050919050565b600061315a6031836137df565b915061316582614265565b604082019050919050565b600061317d6029836137df565b9150613188826142b4565b604082019050919050565b60006131a06023836137df565b91506131ab82614303565b604082019050919050565b60006131c36018836137df565b91506131ce82614352565b602082019050919050565b60006131e6602b836137df565b91506131f18261437b565b604082019050919050565b61320581613938565b82525050565b61321481613966565b82525050565b61322381613966565b82525050565b60006132358285612d8e565b91506132418284612d8e565b91508190509392505050565b60006020820190506132626000830184612ca0565b92915050565b600060808201905061327d6000830187612ca0565b61328a6020830186612ca0565b613297604083018561321a565b81810360608301526132a98184612d1c565b905095945050505050565b600060208201905081810360008301526132ce8184612caf565b905092915050565b60006020820190506132eb6000830184612d0d565b92915050565b6000602082019050818103600083015261330b8184612d55565b905092915050565b6000602082019050818103600083015261332c81612dbf565b9050919050565b6000602082019050818103600083015261334c81612de2565b9050919050565b6000602082019050818103600083015261336c81612e05565b9050919050565b6000602082019050818103600083015261338c81612e28565b9050919050565b600060208201905081810360008301526133ac81612e4b565b9050919050565b600060208201905081810360008301526133cc81612e6e565b9050919050565b600060208201905081810360008301526133ec81612e91565b9050919050565b6000602082019050818103600083015261340c81612eb4565b9050919050565b6000602082019050818103600083015261342c81612ed7565b9050919050565b6000602082019050818103600083015261344c81612efa565b9050919050565b6000602082019050818103600083015261346c81612f1d565b9050919050565b6000602082019050818103600083015261348c81612f40565b9050919050565b600060208201905081810360008301526134ac81612f63565b9050919050565b600060208201905081810360008301526134cc81612f86565b9050919050565b600060208201905081810360008301526134ec81612fa9565b9050919050565b6000602082019050818103600083015261350c81612fcc565b9050919050565b6000602082019050818103600083015261352c81612fef565b9050919050565b6000602082019050818103600083015261354c81613012565b9050919050565b6000602082019050818103600083015261356c81613035565b9050919050565b6000602082019050818103600083015261358c81613058565b9050919050565b600060208201905081810360008301526135ac8161307b565b9050919050565b600060208201905081810360008301526135cc8161309e565b9050919050565b600060208201905081810360008301526135ec816130c1565b9050919050565b6000602082019050818103600083015261360c816130e4565b9050919050565b6000602082019050818103600083015261362c81613107565b9050919050565b6000602082019050818103600083015261364c8161312a565b9050919050565b6000602082019050818103600083015261366c8161314d565b9050919050565b6000602082019050818103600083015261368c81613170565b9050919050565b600060208201905081810360008301526136ac81613193565b9050919050565b600060208201905081810360008301526136cc816131b6565b9050919050565b600060208201905081810360008301526136ec816131d9565b9050919050565b600060208201905061370860008301846131fc565b92915050565b6000602082019050613723600083018461321a565b92915050565b6000613733613744565b905061373f82826139f1565b919050565b6000604051905090565b600067ffffffffffffffff82111561376957613768613b29565b5b61377282613b58565b9050602081019050919050565b6000819050602082019050919050565b600081519050919050565b600081519050919050565b600081519050919050565b6000602082019050919050565b600082825260208201905092915050565b600082825260208201905092915050565b600082825260208201905092915050565b600081905092915050565b600061380682613938565b915061381183613938565b92508261ffff0382111561382857613827613a9c565b5b828201905092915050565b600061383e82613966565b915061384983613966565b9250827fffffffffffffffffffffffffffffffffffffffffffffffffffffffffffffffff0382111561387e5761387d613a9c565b5b828201905092915050565b600061389482613966565b915061389f83613966565b9250826138af576138ae613acb565b5b828204905092915050565b60006138c582613966565b91506138d083613966565b9250828210156138e3576138e2613a9c565b5b828203905092915050565b60006138f982613946565b9050919050565b60008115159050919050565b60007fffffffff0000000000000000000000000000000000000000000000000000000082169050919050565b600061ffff82169050919050565b600073ffffffffffffffffffffffffffffffffffffffff82169050919050565b6000819050919050565b600060ff82169050919050565b82818337600083830152505050565b60005b838110156139aa57808201518184015260208101905061398f565b838111156139b9576000848401525b50505050565b600060028204905060018216806139d757607f821691505b602082108114156139eb576139ea613afa565b5b50919050565b6139fa82613b58565b810181811067ffffffffffffffff82111715613a1957613a18613b29565b5b80604052505050565b6000613a2d82613966565b91507fffffffffffffffffffffffffffffffffffffffffffffffffffffffffffffffff821415613a6057613a5f613a9c565b5b600182019050919050565b6000613a7682613966565b9150613a8183613966565b925082613a9157613a90613acb565b5b828206905092915050565b7f4e487b7100000000000000000000000000000000000000000000000000000000600052601160045260246000fd5b7f4e487b7100000000000000000000000000000000000000000000000000000000600052601260045260246000fd5b7f4e487b7100000000000000000000000000000000000000000000000000000000600052602260045260246000fd5b7f4e487b7100000000000000000000000000000000000000000000000000000000600052604160045260246000fd5b6000601f19601f8301169050919050565b7f5175616472616e74206f6e65206d7573742062652061637469766520746f206d60008201527f696e740000000000000000000000000000000000000000000000000000000000602082015250565b7f5175616472616e74206f6e65206861732072756e206f7574206f66206c616e6460008201527f7320746f206d696e740000000000000000000000000000000000000000000000602082015250565b7f4552433732313a207472616e7366657220746f206e6f6e20455243373231526560008201527f63656976657220696d706c656d656e7465720000000000000000000000000000602082015250565b7f4f776e61626c653a206e6577206f776e657220697320746865207a65726f206160008201527f6464726573730000000000000000000000000000000000000000000000000000602082015250565b7f4552433732313a20746f6b656e20616c7265616479206d696e74656400000000600082015250565b7f5175616472616e7420666f7572206861732072756e206f7574206f66206c616e60008201527f647320746f206d696e7400000000000000000000000000000000000000000000602082015250565b7f4552433732313a207472616e7366657220746f20746865207a65726f2061646460008201527f7265737300000000000000000000000000000000000000000000000000000000602082015250565b7f4552433732313a20617070726f766520746f2063616c6c657200000000000000600082015250565b7f50757263686173652077696c6c20657863656564206d617820617661696c616260008201527f6c6520706965636573206f66206c616e64000000000000000000000000000000602082015250565b7f53616c65206d7573742062652061637469766520746f206d696e740000000000600082015250565b7f4552433732313a206f70657261746f7220717565727920666f72206e6f6e657860008201527f697374656e7420746f6b656e0000000000000000000000000000000000000000602082015250565b7f5175616472616e74207468726565206d7573742062652061637469766520746f60008201527f206d696e74000000000000000000000000000000000000000000000000000000602082015250565b7f4552433732313a20617070726f76652063616c6c6572206973206e6f74206f7760008201527f6e6572206e6f7220617070726f76656420666f7220616c6c0000000000000000602082015250565b7f4552433732313a2062616c616e636520717565727920666f7220746865207a6560008201527f726f206164647265737300000000000000000000000000000000000000000000602082015250565b7f4552433732313a206f776e657220717565727920666f72206e6f6e657869737460008201527f656e7420746f6b656e0000000000000000000000000000000000000000000000602082015250565b7f45524337323155524953746f726167653a2055524920736574206f66206e6f6e60008201527f6578697374656e7420746f6b656e000000000000000000000000000000000000602082015250565b7f5175616472616e742076616c756520697320696e76616c696400000000000000600082015250565b7f5175616472616e7420666f7572206d7573742062652061637469766520746f2060008201527f6d696e7400000000000000000000000000000000000000000000000000000000602082015250565b7f4552433732313a206d696e7420746f20746865207a65726f2061646472657373600082015250565b7f45524337323155524953746f726167653a2055524920717565727920666f722060008201527f6e6f6e6578697374656e7420746f6b656e000000000000000000000000000000602082015250565b7f4552433732313a20617070726f76656420717565727920666f72206e6f6e657860008201527f697374656e7420746f6b656e0000000000000000000000000000000000000000602082015250565b7f4f776e61626c653a2063616c6c6572206973206e6f7420746865206f776e6572600082015250565b7f56616c756520646f6573206e6f742076616c6964000000000000000000000000600082015250565b7f4552433732313a207472616e73666572206f6620746f6b656e2074686174206960008201527f73206e6f74206f776e0000000000000000000000000000000000000000000000602082015250565b7f4552433732314d657461646174613a2055524920717565727920666f72206e6f60008201527f6e6578697374656e7420746f6b656e0000000000000000000000000000000000602082015250565b7f4552433732313a20617070726f76616c20746f2063757272656e74206f776e6560008201527f7200000000000000000000000000000000000000000000000000000000000000602082015250565b7f4552433732313a207472616e736665722063616c6c6572206973206e6f74206f60008201527f776e6572206e6f7220617070726f766564000000000000000000000000000000602082015250565b7f5175616472616e742074776f206861732072756e206f7574206f66206c616e6460008201527f7320746f206d696e740000000000000000000000000000000000000000000000602082015250565b7f5175616472616e742074776f206d7573742062652061637469766520746f206d60008201527f696e740000000000000000000000000000000000000000000000000000000000602082015250565b7f496e76616c696420706172616d657465722076616c7565210000000000000000600082015250565b7f5175616472616e74207468726565206861732072756e206f7574206f66206c6160008201527f6e647320746f206d696e74000000000000000000000000000000000000000000602082015250565b6143d3816138ee565b81146143de57600080fd5b50565b6143ea81613900565b81146143f557600080fd5b50565b6144018161390c565b811461440c57600080fd5b50565b61441881613966565b811461442357600080fd5b50565b61442f81613970565b811461443a57600080fd5b5056fe68747470733a2f2f676174657761792e70696e6174612e636c6f75642f697066732f516d657235364e746a656f764e79667371484268586256715031736a64776e356531616d50466e524164724c32612fa26469706673582212207874d375ca30a16d4234738cb128cf3dca1d82cc6cce729e911f41509983bf7c64736f6c63430008040033",
  "linkReferences": {},
  "deployedLinkReferences": {}
}